:020000040800F2
:10000000D83D002041020008793000083D3000084A
:1000100075300008B5170008E9330008000000003B
:10002000000000000000000000000000A90100081E
:10003000B917000800000000ED010008A530000815
:100040005B0200085B0200085B0200085B0200081C
:100050005B0200085B0200085B0200085B0200080C
:100060005B0200085B0200085B0200085B020008FC
:100070005B0200085B0200085B0200085B020008EC
:100080005B0200085B0200085B0200085B020008DC
:100090005B0200085B0200085B0200085B020008CC
:1000A0005B0200085B0200085B0200085B020008BC
:1000B0005B02000841310008513100085B02000872
:1000C0005B0200085B0200085B0200085B0200089C
:1000D0005B0200085B020008653300085B02000851
:1000E0005B0200085B0200085B02000800F002F8F7
:1000F00000F04AF80AA090E8000C82448344AAF178
:100100000107DA4501D100F03FF8AFF2090EBAE875
:100110000F0013F0010F18BFFB1A43F0010318473B
:10012000448E0000648E0000103A24BF78C878C165
:10013000FAD8520724BF30C830C144BF04680C60ED
:10014000704700000023002400250026103A28BF35
:1001500078C1FBD8520728BF30C148BF0B60704739
:10016000662906F0AF84732900F0098500207047E6
:100170001FB500F06FFD04000020002106F0F2FA28
:10018000E0601FBD10B510BD00F068FE1146FFF71E
:10019000EFFF04F029F900F086FE03B4FFF7F2FF49
:1001A00003BC03F05AF90000224B19680868B0E854
:1001B000F00F80F30988BFF36F8F4FF0000080F3DA
:1001C00011884EF00D0E70470000000006480068D0
:1001D000006880F3088862B661B6BFF34F8FBFF343
:1001E0006F8F00DF00BF00BF08ED00E0EFF3098074
:1001F000BFF36F8F0F4B1A6820E9F00F106008B53E
:100200004FF0500080F31188BFF34F8FBFF36F8F13
:1002100005F0ACFB4FF0000080F31188BDE808400A
:1002200019680868B0E8F00F80F30988BFF36F8F92
:10023000704700BF38000020EFF3058070470000D2
:100240000948804709480047FEE7FEE7FEE7FEE76A
:10025000FEE7FEE7FEE7FEE7FEE7FEE704480549A6
:10026000054A064B704700003F310008ED000008CA
:10027000D8370020D83D0020D8390020D8390020B8
:10028000704710B54C1084EA530404D54042C1F1C4
:10029000000138BF491E1B4204D55242C3F100037E
:1002A00038BF5B1E00F0B5F914F0804F04D0404217
:1002B000C1F1000138BF491E14F0004F04D0524272
:1002C000C3F1000338BF5B1E10BD00000FB404492A
:1002D00010B503AA029800F057FC10BC5DF814FB9F
:1002E0001C0000200FB41CB5074B06AA7B446946CE
:1002F0000090059800F019FC0020694600F028FCE9
:100300001CBC5DF814FB00006108000070B50446D9
:1003100085690068C10601D5302600E02026C007A7
:1003200007D070BDD4E9012130469047206A401CB7
:1003300020626D1EF6D570BD70B5044685690078E3
:10034000C00707D170BDD4E9012120209047206A61
:10035000401C20626D1EF6D570BD70B50C4605467A
:10036000012A05D02878800600D5EA69002302E03A
:10037000012305E05B1C934202D2E05C0028F9D126
:10038000A869E618C01AA861286A18442862284695
:10039000FFF7BCFF04E0D5E9012114F8010B9047F9
:1003A000B442F8D32846FFF7C7FF70BD2DE9F05FD0
:1003B000894604464FF0000ADFF824B1FB44C0F838
:1003C00020A02046E168884700287DD0252806D057
:1003D000D4E901219047206A401C2062F1E7002502
:1003E0005F462046E16888472028064607DB312E15
:1003F00005D2B81910F8200C08B10543F1E7A80799
:1004000001D525F00405C4F81CA00027C4F818A0E5
:100410002A2E09D0304603F019F838B304EB8708C8
:10042000303EC8F8186019E059F8041B204604EB68
:1004300087029161E1688847012F064618D1E0697B
:10044000002820DA25F020051DE0D8F8180000EB80
:10045000800006EB40003038C8F818002046E168FC
:100460008847064602F0F2FF0028EED1012F0AD09D
:100470002E2E08D12046E16888477F1C0646022FB1
:1004800045F02005C4DBA069002803DA404245F0AE
:100490000105A061E80701D025F01005A6B1A6F17D
:1004A0004100192802D8203645F400654A463146F5
:1004B000204625604D46FFF753FE60B1012807D066
:1004C000ED1D25F0070000E007E000F1080978E7DE
:1004D00005F1040975E730467AE7206ABDE8F09F28
:1004E000FC8A000010B5431C02E010F8011B71B13A
:1004F0008107FAD14FF0013202C88C1A8C4314EAFA
:10050000C211F9D0C01A0A0603D0C01E10BDC01A0D
:1005100010BD0A0401D0801E10BD0902FCD0401E8F
:1005200010BD032A40F2308010F0030C00F015805B
:1005300011F8013BBCF1020F624498BF11F801CBE6
:1005400000F8013B38BF11F8013BA2F1040298BF4B
:1005500000F801CB38BF00F8013B11F0030300F0B5
:100560002583083AC0F0088051F8043B083A51F856
:1005700004CBA0E80810F5E7121D5CBF51F8043B5E
:1005800040F8043BAFF30080D20724BF11F8013BD1
:1005900011F801CB48BF11F8012B24BF00F8013B33
:1005A00000F801CB48BF00F8012B704702F0FF03B1
:1005B00043EA032242EA024200F02CBB4FF0000261
:1005C00000B5134694469646203922BFA0E80C5049
:1005D000A0E80C50B1F12001BFF4F7AF090728BF24
:1005E000A0E80C5048BF0CC05DF804EB890028BFA0
:1005F00040F8042B08BF704748BF20F8022B11F0C9
:10060000804F18BF00F8012B704770477047704744
:10061000704753EA020C00F069802DE9F04B4FF06F
:100620000006002B1FBFB3FA83F503FA05F424FA82
:1006300005F65E4012BF1643B2FA82F502FA05F4DF
:10064000C5F120051EBF22FA05FC44EA0C04203542
:1006500056EA044C4FEA144418BF641C4FF00008DB
:100660004FF00009904271EB030C39D3002919BFF8
:10067000B1FA81F701FA07F6B0FA80F700FA07F647
:10068000C7F120071EBF20FA07FC46EA0C062037F8
:10069000B6FBF4FCA7EB0507103F07F01F0BCBF1EF
:1006A00020060CFA0BFB2CFA06F644BFB3460026D4
:1006B000202FA4BF5E464FF0000B5BEA060C08BF7C
:1006C0004FF0010B19EB0B09ABFB027C48EB060862
:1006D000C01B06FB02CC0BFB03CC71EB0C01C1E78A
:1006E0000B46024641464846BDE8F08B13B54FF035
:1006F00000004FF00001AFF30080BDE81C407047E0
:1007000070472DE9FF4F0C461E464FF0FF378BB068
:10071000D2E90001DDF860800A908A46C1F30A55EB
:1007200005B93D46002108464FF00000BAF1000F20
:1007300000F4400005DA00EB80004FF4400101EACC
:1007400050004FEA9059B9F1010F00DDB9460A98FF
:1007500050EA4A000ED044F61050A5F2FF3545434A
:100760002F14B8F1000F1ED07542291E1EDDC9F1ED
:1007700000021CE0B8F1010F4FF0000001D0302161
:1007800003E0F24305E02154401CB042FBDB30465D
:100790000022002121540B99C1F80880C1E90020F2
:1007A0000FB0BDE8F08FBD1B6D1CDEE74A4600DAD6
:1007B000694206A800F0D8FA06AB93E8070003AB3D
:1007C00083E8070050460A9900F0B6FB8DE8070061
:1007D000A0F500501F3800900398002D0ADD42F26A
:1007E0001F014A460844002303A90390684600F00D
:1007F0001FFE09E0A0F500504A461F38002303A958
:100800000390684600F029FE8DE807000004000C04
:1008100003D04FF0FF30410800E01046B8F1000F60
:1008200003D00022009215461EE0751E05D400F08C
:1008300015FA303262556D1EF9D5B34601220843D0
:1008400002D000227F1C04E02078302801D1002251
:100850007F1E002A099784D01DE0112D07DA00F0D1
:10086000FDF9303262556D1C50EA0102F5D10843A2
:1008700002D00098C8B10EE00021681E05E0235C9C
:10088000625C63542254401E491C8142F7DBAB4634
:10089000A81B401E0990002004F80B000B98099A31
:1008A000C0F80880C0E9002B7AE711264FF0000855
:1008B00057E72DE9F04F88460446D21D22F0070184
:1008C00091B0D1E90001CDE90A0102F08FFD0246A5
:1008D0000B98C00F01D02D2007E02068810701D5BB
:1008E0002B2002E0202101EAC000032A099001D058
:1008F000072A05DB03464146204600F0F5F90BE1E7
:100900002078800601D5E06900E00620B8F1650F87
:10091000814606D0B8F1660F18D0B8F1670F70D1D4
:1009200031E00020B9F1110F009001DB112301E04B
:1009300009F101030AAA01A90CA8FFF7E2FEDDE90B
:100940000C70002609F10105834647E001204B4663
:1009500000904FF000470AAA01A90CA8FFF7D1FEAA
:10096000DDE90DB00C995D46002610B909F10100D2
:100970000D18B9EB050003D4C0F1FF3609F10105EC
:10098000A5EB09002BE0B9F1010F01DA4FF00109E5
:100990000020B9F1110F0090484601DD112300E05D
:1009A00003460AAA01A90CA8FFF7ABFEDDE90C700B
:1009B0004D4600268346207800070AD4AB4500DA6E
:1009C0005D4601A8012D04DD411911F8011C3029F3
:1009D00007D04F4502DA17F1040F04DA01208246EE
:1009E0000FE06D1EEEE7002F02DCED1B3E4403E03E
:1009F000781CA84200DD7D1CB81B00F1010A4FF0F5
:100A000000472078000703D4AA4501DB4FF0FF3AE6
:100A10000021B7F1004F0DF143088DF8431024D0A9
:100A200002202B23002F01DA7F422D230A21021EF0
:100A3000A0F1010000DC5FB197FBF1FC97FBF1F244
:100A400001FB1C7C17460CF1300C08F801CDEEE7D9
:100A5000A8F1010003702188090501D5452100E0B6
:100A60006521A0F1010800F8011C09980FA9A1EB6C
:100A70000807FF1D00B10120411901EBEA70A169CF
:100A80003844081A401EA0612078C00602D42046CF
:100A9000FFF73CFC099828B1D4E901219047206A6E
:100AA000401C20622078C00622D52046FFF72EFC8D
:100AB0001EE0002E04DBB34502DD01A8805D00E0EE
:100AC0003020D4E901219047206A401C2062761C26
:100AD000AAF101005FEA000A0AD100F0BBF8C06881
:100AE0000168405CD4E901219047206A401C2062E3
:100AF000281EA5F10105DCDC07E0D4E9012118F886
:100B0000010B9047206A401C2062381EA7F10107A4
:100B1000F3DC2046FFF710FC032011B041E6000093
:100B200001694A1C02610878704700B58FB0CDE9B1
:100B300001310021059105497944CDE903101146A1
:100B40006846FFF733FC0FB000BD0000E5FFFFFF74
:100B50000A6802F8010B0A60704710B5436913B1C7
:100B6000AFF3008001E0FFF7F8FB012010BD127821
:100B700000F124010A7000224A700122EDE7116899
:100B80004FF0FF32E9E70000074B70B50D467B449C
:100B9000FFF7CBFF0446284600F058F910B14FF09C
:100BA000FF3070BD204670BD9735000010B5203A6B
:100BB000C0F00B80B1E81850203AA0E81850B1E816
:100BC0001850A0E81850BFF4F5AF5FEA027C24BFCC
:100BD000B1E81850A0E8185044BF18C918C0BDE8C3
:100BE00010405FEA827C24BF51F8043B40F8043B8C
:100BF00008BF7047D20728BF31F8023B48BF11F841
:100C0000012B28BF20F8023B48BF00F8012B70479A
:100C10004FF000020429C0F0128010F0030C3FF4E2
:100C2000CFACCCF1040CBCF1020F18BF00F8012BC3
:100C3000A8BF20F8022BA1EB0C01FFF7C1BC5FEAB3
:100C4000C17C24BF00F8012B00F8012B48BF00F83D
:100C5000012B7047004870479837002030B5B0F13D
:100C60000A024FEA900E71F100034EEA817EB0EB6A
:100C70000E0061EB91014FEA101E4EEA017E10EB6F
:100C80000E0041EB11114FEA102E4EEA016E10EBEF
:100C90000E0041EB11214FEA104E4EEA014E10EBCF
:100CA0000E0041EB1141401841F100014FEAD00024
:100CB00040EA41704FEAD10110EB80054FEA810410
:100CC00044EA907444EB01046D1944EB0404521B94
:100CD000A3414FF0000348BF0A3200D530BD401C8D
:100CE00041F1000130BD00002DE9F0411F460446EE
:100CF00003260168072A01F4006004DB08B116A589
:100D000005E016A503E008B115A500E015A521F042
:100D100010002060A069C01EA0610FB1401EA0613C
:100D20002046FFF7F3FA4FB1D4E901213846904746
:100D3000206A401C2062C01C206206E0206AFAE79C
:100D4000D4E9012115F8010B9047761EF8D2204610
:100D5000FFF7F2FABDE8F0814E414E006E616E0081
:100D6000494E4600696E66002DE9F04781461646F9
:100D70008AB0354878440DC88DE80D003248784473
:100D8000801C03AC0DC884E80D0041F69B3008447C
:100D9000372190FBF1F290FBF1F5A5F1800501FB05
:100DA00012041B3C02D56442012000E00020DFF861
:100DB00098A080460027FA44AAF1BE0A0EE0E00798
:100DC0000AD03246684607EB470101230AEB81014E
:100DD00000F043FB8DE8070064107F1C002CEED16F
:100DE000194F7F44AE3F19E0E80715D007EB041018
:100DF0000DF1180A90E80E008AE80E00C068F04273
:100E000001D1981908903246012306A903A800F0E1
:100E100024FB03AB83E807006D10641C002DE3D1B5
:100E20004FF0010332466946B8F1000F03A802D023
:100E300000F0FEFA01E000F010FBC9E90001C9F87A
:100E400008200AB0BDE8F087D4810000007B00F0E4
:100E50008000704700487047783700207546FFF7DC
:100E6000F9FFAE4605006946534620F00700854667
:100E700018B020B5FFF7F2F9BDE820404FF00006AA
:100E80004FF000074FF000084FF0000B21F0070172
:100E9000AC46ACE8C009ACE8C009ACE8C009ACE8B5
:100EA000C0098D46704710B50446AFF30080204658
:100EB000BDE81040FFF771B94FF0013C50F8042B2A
:100EC00051F8043B9A4221D1A2EB0C03934313EA5D
:100ED000CC1317D150F8042B51F8043B9A4215D18A
:100EE000A2EB0C03934313EACC130BD150F8042B61
:100EF00051F8043B9A4209D1A2EB0C03934313EA45
:100F0000CC13DBD04FF00000704700BFD01A01BAFD
:100F1000B1FA81F101F0180122FA01F0CB40C1F1E0
:100F20002001DBB2C0B2C01A2CFA01F3D11A9143EE
:100F300011EAC311E6D170475FEA400C08BF91F097
:100F4000000F4FEA8C234FEAC12243EA51514FEA86
:100F50001C5018BF00F5F0404FEA300018BF41F0B8
:100F600000415FEA6C5C00F02980BCF1FF3F08BFE4
:100F700040F080407047130C06BF12044FF0100C75
:100F80004FF0000C130E04BF12020CF1080C130FEB
:100F900004BF12010CF1040C930F04BF92000CF17A
:100FA000020CD30F04BF52000CF1010C11464FF09C
:100FB0000002A0F11F00A0EB0C00704711F0004FE1
:100FC00008BF704731F000413FF4D5AF0B0C06BFAE
:100FD00009044FF0100C4FF0000C0B0E04BF090277
:100FE0000CF1080C0B0F04BF09010CF1040C8B0F62
:100FF00004BF89000CF1020CCB0F04BF49000CF1B7
:10100000010CCCF12003A0EB0C0022FA03F302FA4E
:101010000CF241EA030100F10100704720F07F4C1F
:1010200080EA030023F07F47ACEB070303F57C5312
:1010300000F0004003F1FF032DE980494FEA154B12
:1010400009B44FEA144325EA0B4E24EA03480FF291
:10105000042606EB132749083E785FEA320203FBB9
:101060000667C7F5000707FB06F64FEA54374FEA55
:10107000D64606F1020607FB066CCCF1005C4FEA8F
:101080001C472CEA074C07FB06F40CFB06F504EBA7
:1010900015464FEA961634BF00204FF000404FEA45
:1010A000D13706FB07FC4FEA1C4C0CFB0BF7D21B9D
:1010B00003FB0CF761EB07010CFB0EF7B0EB0740ED
:1010C00072EB17420CFB08F734BFA2EB0742B2EBFE
:1010D000074261EB17414FEA0C444FEA910706FBC8
:1010E00007FC4FEA1C4C0CFB0BF7B0EBC74072EB54
:1010F000573203FB0CF734BFA2EBC742B2EBC74237
:1011000061EB57310CFB0EF7B0EBC70072EB577277
:101110000CFB08F734BFA2EBC702B2EBC70261EBCE
:101120005771039F4FEA816141EA921104EBCC04AD
:101130004FEAD1374FEA826206FB07FC42EA90127F
:101140004FEA80604FEA1C4C0CFB0BF7D21B03FBF1
:101150000CF761EB07010CFB0EF7B0EB074072EBED
:1011600017420CFB08F734BFA2EB0742B2EB074271
:1011700061EB17414FEA8C554FEA910704EB9C2431
:1011800006FB07FC4FEA1C4C0CFB0BF7B0EBC7400F
:1011900072EB573203FB0CF734BFA2EBC742B2EB42
:1011A000C74261EB57310CFB0EF7B0EBC70072EB97
:1011B00057720CFB08F734BFA2EBC702B2EBC702B1
:1011C00061EB577115EB4C254FEA816141EA9211B1
:1011D0004FEA82624FEAD13742EA901206FB07FCDF
:1011E00044F100044FEA80604FEA1C4C0CFB0BF703
:1011F000D21B03FB0CF761EB07010CFB0EF7B0EB06
:10120000074072EB17420CFB08F734BFA2EB074212
:10121000B2EB074261EB174115EB1C154FEA813128
:1012200041EA92414FEA823242EA90424FEA8030EC
:101230004FEA0C7644F1000448EA03434EEA0B48B7
:101240004FF0000EB2EB080C71EB030724BF6246AF
:1012500039464EEB0E0E4FF0000B0018524149413B
:101260004BEB0B0BB2EB080C71EB03077BF1000BA4
:1012700024BF624639464EEB0E0E4FF0000B0018AD
:10128000524149414BEB0B0BB2EB080C71EB0307DE
:101290007BF1000B24BF624639464EEB0E0E51EA3D
:1012A000020718BF46F0010616EB0E7655F1000254
:1012B00054F1000103D5BDE88901BDE80088BDE80F
:1012C0008901BDE80048B619524141EB0101A3F183
:1012D0000103704780807F7E7D7C7B7A797877768A
:1012E00076757473727171706F6E6E6D6C6C6B6A03
:1012F0006A696868676666656464636362616160A1
:10130000605F5F5E5E5D5D5C5C5B5B5A5A5959581D
:101310005857575656555555545453535252525187
:10132000515050504F4F4F4E4E4D4D4D4C4C4C4BDD
:101330004B4B4A4A4A494949484848474747474624
:101340004646454545444444444343434342424260
:1013500042414141002B9C4630D477002BD01CB534
:101360004FEA370703B44FF010004FF01001BAF105
:10137000000F06D0BCF1000FDCBF40F0080040F0C9
:1013800008014FF000000FBCBDE810400BF1010B4D
:10139000BBF1010F08BF5FEA170722BF12F101027C
:1013A00011F101014FF0004143F1000300F0004052
:1013B00043EA00007047F9D35708D0E746EA0646EB
:1013C00013F1400F4FEA16461FDD13F1200FDFBF68
:1013D00016430A46002120335B42BED0C3F12007EA
:1013E00046EA064602FA07F74FEA164646EA0706B5
:1013F000C3F1200722FA03F201FA07F721FA03F1F9
:101400004FF0000342EA0702A7E746EA020646EA6F
:1014100006464FEA164646EA0106BCBF46EA0646BD
:10142000360C4FF000034FF000024FF0000194E73C
:101430002DE9804C9A46934670B491E8380007C86D
:1014400031EA400C48BF34EA430C03D5FFF7E6FD10
:10145000FFF780FFF0BCBDE8008C2DE9804C9A4678
:10146000934670B491E8380007C810F0804F08BF69
:1014700013F0804F03D100F005F8FFF76BFFF0BCCD
:10148000BDE8008C20F07F4780EA030023F07F4C0A
:1014900007EB0C03A3F57C5300F00040A3F1FE031F
:1014A00092F0000F00F0B38095F0000F00F077800D
:1014B0002DE901494FEA11404FEA144621EA00485C
:1014C00000FB06FC24EA064708FB06F607FB08F8C3
:1014D00000FB07F718EB06484CEB164C4FEA124B93
:1014E00018EB07484FEA15464CEB174022EA0B4E23
:1014F0000BFB06FC25EA06470EFB06F607FB0EFE75
:101500000BFB07F71EEB064E4CEB164C4FF000069C
:101510001EEB074E4CEB174B18EB0B0840F100008D
:1015200018EB0E0B58EB000840F100008F1A4FF03B
:1015300000013CBFC943661B14BFB5EB040C00217E
:101540003CBFC943F61B4FEA17444EEA8E0E27EA0A
:1015500004454FEA1C4704FB07622CEA074C05FBD5
:1015600007F70CFB05F604FB0CFC16EB074642EBF9
:10157000174216EB0C4642EB1C421BEB060658EBDF
:101580000202414146EA9E0601D5BDE80189B6192D
:10159000524141EB0101A3F10103BDE801894FEA8A
:1015A00014454FEA114724EA054621EA074C05FB9A
:1015B00007F406FB07F70CFB06F105FB0CFC11EB2F
:1015C000074144EB17444FEA124711EB0C4144EB3F
:1015D0001C4422EA074C05FB07F206FB07F70CFB4D
:1015E00006F605FB0CFC16EB074642EB174216EB22
:1015F0000C4642EB1C456A1854F1000148BF704785
:10160000B619524141EB0101A3F10103704795F076
:10161000000F37D04FEA11424FEA144721EA024641
:1016200024EA074C02FB07F106FB07F70CFB06F464
:1016300002FB0CFC14EB074441EB17414FEA154742
:1016400014EB0C4441EB1C4125EA074C02FB07F567
:1016500006FB07F70CFB06F602FB0CFC16EB074635
:1016600045EB174516EB0C4645EB1C42121951F1A0
:10167000000148BF7047B619524141EB0101A3F187
:10168000010370474FEA14454FEA114724EA054623
:1016900021EA074C05FB07F106FB07F70CFB06F2F6
:1016A0004FF0000605FB0CFC12EB074241EB174123
:1016B00012EB0C4251EB1C4148BF7047921841EBB2
:1016C0000101A3F10103704770B5044600252068AD
:1016D000806800F0010018B32068806820F00100E5
:1016E0002168886000F01AFD054613E000F016FD41
:1016F000401B02280ED92068806800F0010048B124
:10170000A06A40F01000A062E06A40F00100E062D0
:10171000012070BD2068806800F001000028E5D13C
:101720000020F6E738B50446002500200090206828
:10173000806800F0010078BB2068806840F00100FC
:1017400021688860194800681949B0FBF1F00090E1
:1017500002E00098401E009000980028F9D100F0A7
:10176000DDFC054619E000F0D9FC401B022814D925
:101770002068806800F0010078B9A06A40F010008D
:10178000A062E06A40F00100E06200BF002084F83F
:10179000240000BF012038BD05E02068806800F00B
:1017A00001000028DFD00020F5E700003400002011
:1017B00040420F0000BFFEE7704772B600BFFEE771
:1017C00038B5024600230020009000BF92F82400A4
:1017D000012801D1022038BD012082F8240000BF79
:1017E0004868072812D21068406B0C79641E04EB1D
:1017F00084051F24AC40A0430D796D1E05EB8505C3
:101800000C68AC4020431468606327E048680D28EA
:1018100012D21068006B0C79E41F04EB84051F24BE
:10182000AC40A0430D79ED1F05EB85050C68AC407D
:1018300020431468206311E01068C06A0C790D3CE5
:1018400004EB84051F24AC40A0430D790D3D05EB4E
:1018500085050C68AC4020431468E06208680A28DB
:1018600012D31068C0680C780A3C04EB44050724C6
:10187000AC40A0430D780A3D05EB45058C68AC40B3
:1018800020431468E0600FE0106800690C7804EBF6
:1018900044050724AC40A0430D7805EB45058C6852
:1018A000AC402043146820610868102802D0086802
:1018B000112827D1174C1068A0421ED110688068EB
:1018C00000F40000F0B91068806840F4000014686B
:1018D000A0600868102815D10F4800680F4CB0FBB5
:1018E000F4F000EB80004000009002E00098401E01
:1018F000009000980028F9D104E0906A40F02000A0
:101900009062012300BF002082F8240000BF184627
:1019100061E70000002401403400002040420F0035
:1019200001460868C06C70472DE9F0410446002765
:1019300000250026A84614B90120BDE8F081A06862
:1019400010B1207D00B100BFA06A30B90020E06274
:1019500084F82400204600F089F82046FFF7B4FE02
:101960000746A06A00F01000002873D1002F71D143
:10197000A06A20F4885040F00200A062E16960682B
:101980000843217B40EA41000643A068B0F5807F10
:1019900002D0A068012802D14FF4807000E000203E
:1019A0000543207D012811D1207B38B9A069401E54
:1019B0004FF4006141EA4030054307E0A06A40F07F
:1019C0002000A062E06A40F00100E0622068406808
:1019D00020F46940284321684860206880682149D4
:1019E0000840304321688860A068B0F5807F02D04D
:1019F000A068012802D14FF4807000E00020B0F50B
:101A0000807F03D1208A401E4FEA00582068C06AB8
:101A100020F4700040EA08002168C86220688068ED
:101A200011490840B04208D10020E062A06A20F0CD
:101A3000020040F00100A06211E0A06A20F0020064
:101A400040F01000A062E06A40F00100E06201276F
:101A500005E0FFE7A06A40F01000A06201273846C9
:101A60006BE70000FDF7E1FFFE0E1FFF10B586B02B
:101A700004460020029003900490059019492068C4
:101A800088422CD100BF1848806940F40070164984
:101A900088610846806900F40070019000BF00BFB3
:101AA00000BF0846806940F00800886108468069E8
:101AB00000F00800019000BF00BF01200290032049
:101AC00003900020049002A9084800F089F9064814
:101AD000406820F4404040F400400349486006B0AC
:101AE00010BD00000024014000100240000C014025
:101AF000F8B504460D46002600200090002700F0AF
:101B00000DFB06462068806800F4807050B1A06A22
:101B100040F02000A06200BF002084F8240000BF35
:101B20000120F8BD2068406800F4807020BB206868
:101B3000C06A00F47000F8B917E0681CA8B125B1BC
:101B400000F0ECFA801BA8420FD92068006800F072
:101B5000020050B9A06A40F00400A06200BF00205B
:101B600084F8240000BF0320DBE72068006800F051
:101B700002000028E1D053E0022000F0E1FB3849E8
:101B80000968B1FBF0F021680969364A114091B942
:101B90002168C9689211114069B921680969324AFE
:101BA000114031B92168C9689211114009B9142155
:101BB00017E0292115E0216809692B4A114021B954
:101BC0002168C9689211114041B121680969274A09
:101BD000114029B92168C968114009B9542100E0B0
:101BE000FC2100FB01F718E0681C98B125B100F05A
:101BF00095FA801BA8420DD90098B8420AD2A06A73
:101C000040F00400A06200BF002084F8240000BF60
:101C1000032086E70098401C00900098B842E3D368
:101C20006FF0120021680860A06A40F40070A062A2
:101C30002068806800F46020B0F5602F0DD1207B13
:101C400058B9A06A20F48070A062A06A00F48050A5
:101C500018B9A06A40F00100A062002061E700000E
:101C600034000020244992249224491249922400ED
:101C700070B50446002500BF94F82400012801D166
:101C8000022070BD012084F8240000BF2046FFF729
:101C900049FD0546002D77D1A06A40F20121884315
:101CA00040F48070A0623C492068884208D13B48DB
:101CB000006800F4702008B9012002E0002000E074
:101CC000012078B1A06A20F48010A06220684068EA
:101CD00000F4806000B3A06A20F4005040F480500B
:101CE000A06219E0A06A40F48010A0622B49091F8D
:101CF0002068884203D028492068884204D12748B8
:101D0000006800F4806000E0002028B1A06A20F4A0
:101D1000005040F48050A062A06A00F4805020B1CE
:101D2000E06A20F00600E06201E00020E06200BF0F
:101D3000002084F8240000BFC01E216808602068CD
:101D4000806800F46020B0F5602F16D11249206839
:101D5000884208D11148006800F4702008B90120B9
:101D600002E0002000E0012038B12068806840F4E3
:101D7000A000216888600CE006E02068806840F4DC
:101D800080102168886004E000BF002084F82400EF
:101D900000BF284675E700000028014004240140E8
:101DA00070B50446002500BF94F82400012801D135
:101DB000022070BD012084F8240000BF2046FFF7F8
:101DC00083FC05462DB9A06A20F4885040F001003C
:101DD000A06200BF002084F8240000BF2846E8E786
:101DE0002DE9F8470346002294466EE14FF00108C2
:101DF00008FA02F4D1F8008008EA0400A0427DD17C
:101E0000DFF8DCA2D1F80480A8EB0A09D0453AD06B
:101E100014DCB8F1030F50D009DCB8F1000F31D059
:101E2000B8F1010F1CD0B8F1020F49D120E0B8F190
:101E3000110F18D0B8F1120F42D11EE0B9F5881F6A
:101E400025D006DCB9F5803F20D0B9F5801F37D109
:101E50001AE0B9F5001F18D0B9F5041F30D117E00A
:101E6000D1F80CC02DE0D1F80C8008F1040C28E06A
:101E7000D1F80C8008F1080C23E0D1F80C8008F1AF
:101E80000C0C1EE000BF00BF00BF00BF00BF00BFC2
:101E9000D1F80880B8F1000F02D14FF0040C0BE02C
:101EA000D1F80880B8F1010F03D14FF0080C1C6184
:101EB00002E04FF0080C5C6103E04FF0000C00E022
:101EC00000BF00BFFF2801D8984601E003F10408D5
:101ED0004646FF2802D84FEA820803E0A2F108082C
:101EE0004FEA88084746D6F800804FF00F0909FAF4
:101EF00007F928EA09080CFA07F900E088E048EA3F
:101F00000908C6F80080D1F8048008F08058B8F1BC
:101F1000805F7DD100BFDFF8CC81D8F8188048F011
:101F20000108DFF8C091C9F81880C846D8F81880B1
:101F300008F00108CDF8008000BF00BF4FEAB938B3
:101F40004FEA920958F829504FEA82784FEA1879F7
:101F50004FF00F0808FA09F825EA0805DFF888812C
:101F6000434502D14FF0000816E0DFF88081434579
:101F700002D14FF001080FE0DFF87481434502D130
:101F80004FF0020808E0DFF86C81434502D14FF0C2
:101F9000030801E04FF004084FEA82794FEA19790B
:101FA00008FA09F848EA0505DFF84C814FEA92097A
:101FB00048F82950D1F8048008F48018B8F5801F3B
:101FC0000AD1DFF83881D8F8008048EA0008DFF845
:101FD0002C91C9F8008009E0DFF82081D8F8008052
:101FE00028EA0008DFF81491C9F80080D1F80480CD
:101FF00008F40018B8F5001F10D1DFF8008108F1CF
:102000000408D8F8008048EA0008DFF8F09000E003
:102010005AE009F10409C9F800800DE0DFF8DC801E
:1020200008F10408D8F8008028EA0008DFF8CC900E
:1020300009F10409C9F80080D1F8048008F40038D7
:10204000B8F5003F0ED1DFF8B480A8F10408D8F845
:10205000008048EA0008DFF8A490A9F10409C9F853
:1020600000800DE0DFF89480A8F10408D8F8008023
:1020700028EA0008DFF88490A9F10409C9F8008073
:10208000D1F8048008F48038B8F5803F0ED1DFF82D
:102090006C80A8F10808D8F8008048EA0008DFF84A
:1020A0005C90A9F10809C9F800800DE0DFF84C80C8
:1020B000A8F10808D8F8008028EA0008DFF83C906A
:1020C000A9F10809C9F80080521CD1F8008028FA4B
:1020D00002F8B8F1000F7FF489AEBDE8F887000080
:1020E000000011100010024000080140000C0140E7
:1020F00000100140001401400800014008040140A4
:10210000024693680B400BB1012000E000207047AD
:102110000AB1016101E00B040361704701480068E6
:102120007047000028000020034800680349097830
:102130000844014908607047280000203000002052
:1021400010B50848006840F01000064908600320F8
:1021500000F0E2F80F2000F007F800F05FF8002030
:1021600010BD0000002002402DE9F04188B0044677
:102170000027B846002600BF2348C06940F004008D
:102180002149C8610846C06900F00400019000BF01
:1021900000BF02A903A800F017FA069F1FB900F0BC
:1021A0003BFA054602E000F037FA45001748B5FB58
:1021B000F0F0A0F1010816481649086040F2E73136
:1021C0001448C160C0F80480002101618160816110
:1021D00000F0AEFC064696B90E4800F01BFD064620
:1021E0006EB91E2000F04AF8102C07D200222146BA
:1021F0001E2000F053F80848046000E00126304635
:1022000008B0BDE8F08100000010024040420F001D
:1022100000080040540200202C00002008B500BF38
:102220001448806940F001001249886108468069BD
:1022300000F00100009000BF00BF00BF0846C06969
:1022400040F08050C8610846C06900F0805000909E
:1022500000BF00BF00220F21901E00F01FF800BF3A
:102260000549486820F0E06040F00070486000BF19
:1022700008BD000000100240000001400146084671
:10228000002809DB00F01F0301229A4043099B004C
:1022900003F1E023C3F8002100BF70472DE9F05F90
:1022A00080460D461646002701F0B4F80746394629
:1022B0002A46334601F00700C0F1070ABAF1040FBD
:1022C00002D94FF0040A01E0C0F1070AD14600F13B
:1022D000040ABAF1070F02D24FF0000A01E0A0F1A0
:1022E000030AD4464FF0010A0AFA09FAAAF1010AD0
:1022F0000AEA020A0AFA0CFA4FF0010B0BFA0CFB7D
:10230000ABF1010B0BEA030B4AEA0B0421464046F2
:1023100001F088F8BDE8F09F00BF00F00702064B0F
:1023200019684FF6FF031940044B0B4343EA02219F
:10233000014B196000BF70470CED00E00000FA058A
:102340002DE9F04706464FF000080025002700243D
:10235000A146012E31D0022E56D0102E5FD1324828
:102360004468006800F0807008B33048C4F38341CB
:10237000475C04F4803078B12B484068C0F340409B
:102380002B4911F8008004F4803040B12948B0FB9B
:10239000F8F000FB07F502E0274807FB00F52248AC
:1023A000406800F48000B0F5800F01D1A94603E039
:1023B00068000321B0FBF1F932E01B48046A04F421
:1023C0004070B0F5807F05D104F0020010B14FF4E9
:1023D000004918E004F44070B0F5007F07D11248BE
:1023E000406A00F0020010B149F640490BE004F4E5
:1023F0004070B0F5407F06D10B48006800F4003013
:1024000008B14FF224490BE000F016F9064949687B
:10241000C1F38131491C4900B0FBF1F900E000BF74
:1024200000BF4846BDE8F08700100240928E0008C9
:10243000A28E000800127A0000093D0070B5044623
:102440000D460CB9012070BD5A48006800F0070025
:10245000A8420ED25748006820F00700284355498B
:1024600008600846006800F00700A84201D001207B
:10247000E9E7207800F0020002281DD1207800F062
:102480000400042805D14C48406840F4E0604A4903
:102490004860207800F00800082805D146484068C8
:1024A00040F46050444948604348406820F0F000E0
:1024B000A168084340494860207800F0010078B3E3
:1024C0006068012806D13C48006800F4003090B9EB
:1024D0000120B8E76068022806D13748006800F09C
:1024E000007040B90120AEE73348006800F00200F8
:1024F00008B90120A7E73048406820F00300616870
:1025000008432D494860FFF709FE064609E0FFF73A
:1025100005FE801B41F28831884202D9032092E7F0
:1025200007E02548406800F00C006168B0EB810FBF
:10253000EDD12048006800F00700A8420ED91D48E0
:10254000006820F0070028431A4908600846006820
:1025500000F00700A84201D0012074E7207800F0C5
:102560000400042807D11448406820F4E060E168C2
:10257000084311494860207800F00800082808D175
:102580000D48406820F46050216940EAC1000A49C2
:10259000486000F061F808494968C1F30311074A2F
:1025A000515CC8400649086006480068FFF7DCFD3A
:1025B000002048E70020024000100240A48E0008DE
:1025C000340000202C0000200F2202600D4A5268C7
:1025D00002F0030242600B4A526802F0F00282608D
:1025E000084A526802F4E062C260064A526802F485
:1025F0006052D2080261044A126802F007020A60BF
:1026000070470000001002400020024001480068AE
:10261000704700003400002000B5FFF7F7FF0449C1
:102620004968C1F30221034A515CC84000BD000063
:1026300000100240B48E000800B5FFF7E7FF044920
:102640004968C1F3C221034A515CC84000BD000083
:1026500000100240B48E000870B500210022002452
:1026600000230020134D696801F00C05F5B1042D1D
:1026700002D0082D19D101E00F4819E00F4DC1F328
:102680008346AB5D01F4803555B10A4D6D68C5F3E5
:1026900040450B4E725D084D5D43B5FBF2F402E020
:1026A000084D03FB05F4204602E000BF024800BFCE
:1026B00000BF70BD0010024000127A00808E00083A
:1026C000908E000800093D00F8B504460CB90120C1
:1026D000F8BD207800F00100002878D0F848406864
:1026E00000F00C0004280CD0F548406800F00C0005
:1026F000082811D1F248406800F48030B0F5803FDE
:102700000AD1EF48006800F4003000285FD060680C
:1027100000285CD10120DBE700BF6068B0F5803F96
:1027200006D1E748006840F48030E549086028E0B9
:10273000606858B9E248006820F48030E0490860D9
:102740000846006820F4802008601AE06068B0F550
:10275000A02F0BD1DA48006840F48020D8490860E7
:102760000846006840F4803008600AE0D4480068F9
:1027700020F48030D24908600846006820F48020A8
:10278000086000BF606888B1FFF7C8FC054606E036
:10279000FFF7C4FC401B642801D9032098E7C84810
:1027A000006800F400300028F2D010E0FFF7B6FC1B
:1027B000054606E0FFF7B2FC401B642801D9032060
:1027C00086E7BF48006800F400300028F2D1207886
:1027D00000F00200022857D1B948406800F00C0010
:1027E00050B1B748406800F00C00082818D1B44830
:1027F000406800F4803098B9B148006800F00200E9
:1028000020B12069012801D0012061E7AC480068AF
:1028100020F0F800616940EAC100A949086033E08E
:102820002069E8B10120A7490860FFF777FC054659
:1028300006E0FFF773FC401B022801D9032047E79D
:102840009F48006800F002000028F2D09C48006811
:1028500020F0F800616940EAC1009949086013E07E
:10286000002098490860FFF759FC054606E0FFF78D
:1028700055FC401B022801D9032029E79048006835
:1028800000F002000028F2D1207800F008000828AB
:102890002DD1A069B8B101208B490860FFF73EFC3B
:1028A000054606E0FFF73AFC401B022801D9032049
:1028B0000EE78348406A00F002000028F2D00120B1
:1028C00000F0DCFB13E000207F490860FFF726FCE6
:1028D000054606E0FFF722FC401B022801D9032031
:1028E000F6E67748406A00F002000028F2D120782E
:1028F00000F00400042873D100277148C06900F07B
:10290000805070B900BF6E48C06940F080506C497B
:10291000C8610846C06900F08050009000BF00BF49
:1029200001276A48006800F48070B0B96748006801
:1029300040F4807065490860FFF7F0FB054606E04B
:10294000FFF7ECFB401B642801D90320C0E65F4879
:10295000006800F480700028F2D000BFE068012811
:1029600006D15748006A40F001005549086227E047
:10297000E06858B95248006A20F0010050490862E6
:102980000846006A20F00400086219E0E0680528A3
:102990000BD14B48006A40F00400494908620846E0
:1029A000006A40F0010008620AE04548006A20F031
:1029B0000100434908620846006A20F004000862EA
:1029C00000BFE068A0B1FFF7A9FB054609E0FFF7EB
:1029D000A5FB401B41F28831884202D9032077E6EB
:1029E00022E03748006A00F002000028EFD012E031
:1029F000FFF794FB054608E0FFF790FB401B41F210
:102A00008831884201D9032062E62D48006A00F02F
:102A100002000028F0D1012F05D12948C06920F01B
:102A200080502749C86100BFE069C8B324484068A6
:102A300000F00C00082860D0E069022848D100208E
:102A400020490866FFF76AFB054606E0FFF766FBCC
:102A5000401B022801D903203AE61948006800F01B
:102A600000700028F2D1206AB0F5803F07D11448E9
:102A7000406820F40030A168084311494860D4E957
:102A8000080108430E49496821F4741108430C49B0
:102A9000486001200B490866FFF740FB054607E048
:102AA0003DE0FFF73BFB401B022801D903200FE666
:102AB0000348006800F000700028F2D02FE000000A
:102AC0000010024000004242800442420070004078
:102AD000002014490866FFF721FB054606E0FFF7D2
:102AE0001DFB401B022801D90320F1E50E480068B8
:102AF00000F000700028F2D111E0E069012800D157
:102B0000E6E50948466806F48031206A814204D12E
:102B100006F47011606A814201D00120D8E50020DE
:102B2000D6E50000000042420010024070477047A6
:102B300010B504460CB9012010BD94F83D0028B929
:102B4000002084F83C00204600F026F8022084F89B
:102B50003D00211D206800F003FB012084F84600A1
:102B600000BF84F83E0001213F200155402001555F
:102B70004120015500BF00BF012084F842004320DE
:102B80000155442001554520015500BF012084F81E
:102B90003D000020D0E7000008B50168B1F1804F8A
:102BA0000DD100BF1849C96941F00101164AD16130
:102BB0001146C96901F00101009100BF23E0134AE9
:102BC000016891420DD100BF0F49C96941F002016E
:102BD0000D4AD1611146C96901F00201009100BF9F
:102BE00011E00B4A016891420DD100BF0649C96945
:102BF00041F00401044AD1611146C96901F00401A0
:102C0000009100BF00BF08BD00100240000400405A
:102C100000080040014691F83D00012801D0012044
:102C20007047022081F83D000868C06840F001004C
:102C30000B68D860124B086898420BD00868B0F156
:102C4000804F07D00F4B0868984203D00E4B08689E
:102C500098420CD10868806800F00702062A0CD060
:102C60000868006840F001000B68186005E008681B
:102C7000006840F001000B6818600020D0E70000F9
:102C8000002C01400004004000080040704710B5CF
:102C9000044620680069C0F34000D8B12068C068CD
:102CA000C0F34000B0B16FF002002168086101205C
:102CB00020772068806900F0030018B12046FFF7F4
:102CC000E5FF05E0204600F0ADF8204600F0ABF847
:102CD0000020207720680069C0F38000D8B1206808
:102CE000C068C0F38000B0B16FF0040021680861D3
:102CF000022020772068806900F4407018B12046D7
:102D0000FFF7C4FF05E0204600F08CF8204600F0F5
:102D10008AF80020207720680069C0F3C000D8B18D
:102D20002068C068C0F3C000B0B16FF0080021682F
:102D30000861042020772068C06900F0030018B102
:102D40002046FFF7A3FF05E0204600F06BF8204681
:102D500000F069F80020207720680069C0F30010B7
:102D6000D8B12068C068C0F30010B0B16FF0100097
:102D700021680861082020772068C06900F440704D
:102D800018B12046FFF782FF05E0204600F04AF820
:102D9000204600F048F8002020772068006900F005
:102DA000010058B12068C06800F0010030B16FF038
:102DB000010021680861204600F036F820680069AB
:102DC000C0F3C01058B12068C068C0F3C01030B163
:102DD0006FF08000216808612046FFF7A7FE206899
:102DE0000069C0F3801058B12068C068C0F380103B
:102DF00030B16FF0400021680861204600F044F8CF
:102E000020680069C0F3401058B12068C068C0F362
:102E1000401030B16FF02000216808612046FFF7B4
:102E200086FE10BD7047704710B5044608492068FB
:102E3000884201D1FFF778F906492068884205D118
:102E400005A001F03AFD01200E49087010BD0000F8
:102E5000000800400004004054494D3320696E745E
:102E60006572727570743A2073657474696E672048
:102E700064687432325F73616D706C655F666C613B
:102E8000670A000004000020704710B504460CB922
:102E9000012010BDA06900B100E000BF94F841001E
:102EA00028B9002084F84000204600F029F82420AA
:102EB00084F841002068C06820F400502168C86090
:102EC000204600F087F92068006920F490402168CE
:102ED00008612068406920F02A0021684861206864
:102EE000C06840F400502168C86000206064202061
:102EF00084F8410084F842000020606300BFC8E706
:102F000010B586B004461B49206888422FD100BF07
:102F10001948C06940F400301749C8610846C069C3
:102F200000F40030019000BF00BF00BF0846806978
:102F300040F0040088610846806900F004000190B8
:102F400000BF00BF022003900420029001200490E3
:102F50000320059002A90948FEF742FF08200290CD
:102F60000020039002A90548FEF73AFF00BF06B013
:102F700010BD000000440040001002400008014065
:102F80002DE9F84F04460E46174699464FF0000AC1
:102F900094F8420020284FD106B117B90120BDE8AE
:102FA000F88F00206064222084F842000020206313
:102FB000FFF7B4F88246A785E785A068B0F5805F83
:102FC00004D1206910B90025B04602E035464FF023
:102FD000000829E05346002220212046CDF8009029
:102FE00000F076F908B10320D9E745B920684068B8
:102FF000C0F30800A8F8000008F1020811E0A0687A
:10300000B0F5805F03D0A06828B9206918B920689E
:103010004068287004E02068406800F07F00287055
:103020006D1CE08D401EE085E08D0028D2D120206F
:1030300084F842000020B2E70220B0E700BFFEE7BC
:1030400010B50A480A4908604FF4E1304860002191
:1030500007488160C16001610C21416100218161EB
:10306000FFF713FF08B1FEF7A8FB10BD00440040B6
:103070000C02002000BFFEE700BFFEE708B50849CC
:103080000968C9084FF47A72B1FBF2F1414300912B
:1030900000BF00BF00994A1E00920029F9D108BD67
:1030A0003400002010B500BF502080F31188BFF31A
:1030B0004F8FBFF36F8F00BF03F014F918B14FF0BB
:1030C00080500449086000BF002080F3118800BFD1
:1030D00010BD000004ED00E000B58FB0282105A868
:1030E000FDF76CFA14216846FDF768FA0120059097
:1030F00000040690002007900120099002200C9007
:10310000C1030D914FF4E0110E9105A8FFF7DCFA11
:1031100008B1FEF752FB0F20009002200190002022
:1031200002904FF4806003900020049002216846D2
:10313000FFF784F908B1FEF740FB0FB000BD704700
:1031400010B50248FFF7A3FD10BD00009401002058
:1031500010B50248FFF79BFD10BD0000540200208F
:1031600010B50268184B984208D0B0F1804F05D0D6
:10317000164B984202D0164B984203D122F07002AF
:103180004B681A43104B984208D0B0F1804F05D0DD
:103190000E4B984202D00E4B984203D122F440725B
:1031A000CB681A4322F080034C6943EA04020260B0
:1031B0008B68C3620B688362034B984201D10B6931
:1031C00003630123436110BD002C01400004004053
:1031D0000008004070B504462168096921F4405197
:1031E000E2681143226811612269A1681143626992
:1031F00041EA02052168C96841F20C629143294302
:103200002268D1602168496921F44071A2691143A3
:10321000226851612D4A2168914202D1FFF70CFAD0
:1032200001E0FFF7F9F900EBC00101EB0011626862
:103230009200B1FBF2F100EBC00202EB00126368F6
:103240009B00B2FBF3F26423B2FBF3F202EBC20386
:1032500003EB0212A1EB8201322202EB0111642284
:10326000B1FBF2F101F0F00100EBC00202EB001241
:1032700063689B00B2FBF3F26423B2FBF3F201EB51
:10328000021200EBC00101EB001163689B00B1FB6F
:10329000F3F100EBC00303EB00136668B600B3FB69
:1032A000F6F36426B3FBF6F303EBC30606EB031356
:1032B000A1EB8301322303EB01116423B1FBF3F192
:1032C00001F00F0111442268916070BD0038014087
:1032D0002DE9F04104460D4617469846069E34E017
:1032E000701C88B32EB1FEF719FFA0EB0800B042A6
:1032F0002BD900BF00BF21680C3151E8001F21F419
:10330000D07021680C3141E80002002AF3D100BFDF
:1033100000BF00BF2168143151E8001F21F00100F7
:103320002168143141E80002002AF3D100BF2020B7
:1033300084F8410084F8420000BF002084F8400077
:1033400000BF0320BDE8F081FFE720680068284047
:10335000A84201D1012000E00020B842C0D00020E6
:10336000F0E7000008B51A4800680068C0F3401094
:1033700098B1002000904FF47A73012269461448F6
:10338000FFF7FEFD9DF80010124802780078401CFF
:10339000104B18701048815400BF0D480068006839
:1033A000C0F3001090B10C490CA0FCF78FFF02F0A5
:1033B0003DF800BF002000900548006800680090BC
:1033C000034800684068009000BF00BF08BD0000CF
:1033D0003401002000000020B400002072656376F4
:1033E0003A2025730D0A000000BFFEE7490050EAAD
:1033F000C12018BF04204A0D18BF40F0010040F260
:10340000FF72B2EB515F08BF40F00200012808BF15
:103410000520704702480068C0F302207047000092
:103420000CED00E010B5002804DB0A07130E054A76
:10343000135406E00A07140E034A00F00F031B1F83
:10344000D45410BD00E400E018ED00E030380A2844
:1034500001D2012070470020704700BFFEE710B581
:10346000012000F089F8102000F086F810BD00005F
:1034700070B504460CB9022070BDC82000F030FEC3
:1034800000F00EF80546284603F0BEFA064603494A
:1034900003F0B0F920600020EEE700009A99993F10
:1034A00070B5002400F054FF472000F07CFF00F0CE
:1034B00045FE00F07BFE0546002000F061FE00F0B6
:1034C00075FE0646012000F05BFE00F058FF46EA5C
:1034D0000524204670BD05E000F006F84FF4FA70B0
:1034E00002F062F9F8E70000F0B589B0002008901A
:1034F00008A8FFF7BDFF054695B9089803F04EF9F7
:10350000064632460B4613A16846FCF7EBFE6846BA
:10351000FCF7E8FFC4B20420089901F095FF07E02A
:1035200010A16846FCF7DEFE6846FCF7DBFFC4B27C
:1035300010480078844203DA0C21022000F0D3FF07
:103540000C236A460221002001F06EF9094804703C
:1035500009B0F0BD4C696768743A20252E316620A9
:103560006C7800004C696768743A202D2D2E2D2050
:103570006C7800000200002010B5044600F0E8FE60
:10358000462000F010FF00F0D9FD204600F00BFFB0
:1035900000F0D4FD00F0F3FE10BD00002DE9FF4F58
:1035A00087B0044699460998C0102188A0EB4100D5
:1035B000B4F902104843C012059021880998C1EB64
:1035C000201040430013B4F90410484380130490C2
:1035D000DDE9041008440690069901EB8101803171
:1035E000081203F0C9F9C9F800007A49D9F80000B7
:1035F00003F000F9C9F800000698C1174FF4FA3338
:10360000C51A61F10006A5FB051006FB050005FBC8
:103610000602B4F91000C317A1FB00CA02FB00A008
:1036200001FB0300CDE902C0B4F90E00C117A0FBF5
:10363000052301FB053100FB06111046D30B43EABD
:1036400041424304DDE9020118184A41CDE9020272
:10365000B4F90C00C200DDE90210091C4241CDE9B9
:103660000212A5FB051006FB050005FB0602B4F9D6
:103670000A00C317A1FB00CA02FB00A001FB030064
:103680004FEA1C2141EA00610212B4F90800C31795
:10369000AC46A0FB0CAE03FB05E300FB06300003C9
:1036A00040EA1A504FEA0A33CD1842EB00062B1CB1
:1036B00046F50040E1880022A3FB01AC00FB01C0FD
:1036C00003FB02014D10CE17002185EA0100714075
:1036D000084304D1C9F804000BB0BDE8F08F089886
:1036E000C0F580104FEAE07807464FEAC87242EA18
:1036F0005702FB07DDE902011B1A62EB010040F6ED
:10370000354C00211A46A2FB0C3A00FB0CA002FB30
:1037100001002A46CDE900303346DDE90001FCF71F
:10372000B0FD07468846B4F91600C217790B41EA86
:10373000C84C4FEA6833A0FB0C1A02FB0CA200FB3A
:103740000322780B40EAC8404FEA683CA1FB003AEC
:1037500002FB00A001FB0C01580E40EAC1154E16F9
:10376000B4F91400C117A0FB072301FB073100FBCC
:103770000811D00C40EA4130C914CDE902017B198F
:1037800048EB0600DDE902219A184841110A41EA96
:1037900000610312B4F91200C217120142EA10725A
:1037A0004FEA001C11EB0C0743EB02083846414678
:1037B00003F0FDF882464FF0874103F01BF8C9F88B
:1037C00004000449D9F8040003F014F8C9F804000F
:1037D00000BF81E70000C84210B5D02000F01CF8FF
:1037E0000446582C01D0012010BDB621E02000F085
:1037F0004FF90A2000F074FC064800F05BF8A421A1
:10380000F52000F045F9FF21F42000F041F90020F7
:10381000EAE700007C01002070B5044600F098FD46
:10382000EC2000F0C0FD00F089FC204600F0BBFD5C
:1038300000F084FC00F08CFDED2000F0B4FD00F001
:103840007DFC00F0B3FC0546012000F099FC00F07F
:1038500096FD284670BD2DE9F04107460E461546F7
:1038600000F076FDEC2000F09EFD00F067FC38468D
:1038700000F099FD00F062FC00F06AFDED2000F020
:1038800092FD00F05BFC00240EE000F08FFC305550
:10389000681EA04203DD002000F072FC02E001205F
:1038A00000F06EFC601CC4B2AC42EEDB00F067FDC1
:1038B000BDE8F08110B586B004461822694688201C
:1038C000FFF7C9FF9DF800009DF8011040EA0120B4
:1038D00020809DF802009DF8031040EA012000B20C
:1038E00060809DF804009DF8051040EA012000B2B8
:1038F000A0809DF806009DF8071040EA0120E080B6
:103900009DF808009DF8091040EA012000B22081CE
:103910009DF80A009DF80B1040EA012000B260817A
:103920009DF80C009DF80D1040EA012000B2A08126
:103930009DF80E009DF80F1040EA012000B2E081D2
:103940009DF810009DF8111040EA012000B220827D
:103950009DF812009DF8131040EA012000B2608229
:103960009DF814009DF8151040EA012000B2A082D5
:103970009DF816009DF8171040EA012000B2E08281
:1039800006B010BD1CB50446694601A800F00AF84F
:1039900023460348DDE90021FFF700FE00201CBD9F
:1039A0007C0100207CB504460D4606226946F720BE
:1039B000FFF751FF9DF8000000049DF8011040EA58
:1039C00001209DF80210084320609DF803000004C8
:1039D0009DF8041040EA01209DF805100843286076
:1039E0002068001120602868001128607CBD05E077
:1039F00000F006F84FF4FA7001F0D6FEF8E7000088
:103A0000F0B593B011A8FFF7BDFF054695B9129820
:103A100002F0C4FE064632460B4613A101A8FCF78D
:103A200061FC01A8FCF75EFDC4B20320129901F00D
:103A30000BFD07E010A101A8FCF754FC01A8FCF75E
:103A400051FDC4B211480078844203DA0C210420ED
:103A500000F049FD0C2301AA0421002000F0E4FE3F
:103A60000A48047013B0F0BD70726573733A252E66
:103A70003266685061000000E6B094E58E8B3A2013
:103A80002D2D2E2D20685061000000000300002025
:103A900070B505460C4600F05BFCEC2000F083FCA2
:103AA00000F04CFB284600F07EFC00F047FB20466F
:103AB00000F079FC00F042FB00F061FC70BD0000FA
:103AC00000B585B000BF1D48806940F004001B4967
:103AD00088610846806900F00400009000BF00BFC4
:103AE00000BF0846806940F400708861084680691C
:103AF00000F40070009000BF00BF20200190032060
:103B000002900020039001A90D48FEF769F90D48C5
:103B10000D4908600020486000210B488160017356
:103B200001754FF46021C16101210161FDF7FCFEC7
:103B300010B106A0FCF7CAFB05B000BD00100240A2
:103B40000008014000240140DC01002041444320E2
:103B5000696E6974206661696C65640D0A00000015
:103B600070B588B0174805780A2D01DA16A40CE064
:103B7000282D01DA16A408E0462D01DA16A404E087
:103B80005A2D01DA17A400E018A422461AA16846AB
:103B9000FCF7A8FB6846FCF7A5FCC6B218480078FD
:103BA000864203DA0C21062000F09DFC0C236A46B5
:103BB0000621002000F038FE114806700148007808
:103BC00008B070BD070000204E6F207261696E0062
:103BD0004C696768740000004D6F646572617465BC
:103BE0000000000048656176790000005665727932
:103BF00048656176790000007261696E3A2573004C
:103C0000060000203EB50024052000900120019010
:103C10000520029069461248FDF7D2FD20B111A09F
:103C2000FCF754FB00203EBD0D48FEF721F820B103
:103C300013A0FCF74BFB0020F5E70A210848FDF72D
:103C400057FF20B90648FDF76BFE84B202E011A0D1
:103C5000FCF73CFB0248FEF7A3F82046E3E7000030
:103C6000DC010020414443206368616E6E656C2076
:103C7000636F6E666967206661696C65640D0A0032
:103C8000414443207374617274206661696C656499
:103C90000D0A000041444320706F6C6C2074696D04
:103CA000656F75740D0A000070B5FFF7ABFF054630
:103CB0006420684340F6FF71B0FBF1F0C4B2C4F178
:103CC00064000149087070BD07000020704710B5FE
:103CD000044603E04FF47A7000F005F8201EA4F1CA
:103CE0000104F7D110BD014601EBC102D2004FF033
:103CF000E0235A6100229A611A46126942F00402D6
:103D00001A611A46126942F001021A6100BF4FF0AF
:103D1000E022106900F001021AB100F48032002A9A
:103D2000F5D04FF0E022126922F001024FF0E023BB
:103D30001A61704710B500F095F900F05BF80020AB
:103D400010BD00002DE9FC4705460E46684600F010
:103D5000F1F8074617B13846BDE8FC879DF800002A
:103D60009DF8011008449DF8021008449DF80310C6
:103D7000084400F0FF089DF80400404502D06FF0B1
:103D80000200E9E79DF801009DF8001040EA0129D2
:103D90009DF803009DF8021040EA0124484602F015
:103DA00033FE82460E4902F025FD306004F40040E7
:103DB00060B1C4F30E04204602F026FE8246084994
:103DC00002F018FD80F00040286007E0204602F075
:103DD0001BFE8246024902F00DFD28600020BBE771
:103DE0000000204105E000F03BF84FF4FA7001F0CC
:103DF000DBFCF8E708B548211648FCF7DFFB00BFFD
:103E00001548C06940F002001349C8610846C069FE
:103E100000F00200009000BF00BF10480D4908608C
:103E200041F61F40486000210A48816044F61F6146
:103E3000C160002101618161FEF77AFE0548FEF74D
:103E4000E9FE002205211D20FEF728FA1D20FEF7BD
:103E500015FA08BD94010020001002400004004043
:103E60002DE9F0438BB026480078002844D000208C
:103E70000A90099009A90AA8FFF764FF8146B9F1E1
:103E8000000F1DD1099802F089FC05460E460A98DC
:103E900002F084FC07463A460B461AA103A8CDE976
:103EA0000056FCF71FFA03A8FCF71CFBC4B2012064
:103EB0000A9901F0C9FA0220099901F0C5FA07E050
:103EC00016A103A8FCF70EFA03A8FCF70BFBC4B27B
:103ED00017480078844203DA0C21002000F003FB2D
:103EE0000C2303AA0021084600F09EFC1048047031
:103EF00000200349087000BF0BB0BDE8F08300004C
:103F000004000020543A2530342E31664320483ACC
:103F10002530342E3166252500000000543A202D2E
:103F20002D2E2D432020483A202D2D2D2500000038
:103F3000050000202DE9F041054601F017FB00F0D7
:103F4000A5F8002240214348FEF7E2F8022000F0E5
:103F5000C7F800F087F81E2000F0CEF8C821002036
:103F600001F06AFD002805DA01F02AFB4FF0FF306E
:103F7000BDE8F081C821012001F05EFD002804DACF
:103F800001F01EFB4FF0FF30F2E7002402E00020BA
:103F90002855641C052CFADB002452E0C8210020BF
:103FA00001F04AFD002804DA01F00AFB6FF001007D
:103FB000DEE7C821012001F03FFD002804DA01F00E
:103FC000FFFA6FF00100D3E7234846680CE023486E
:103FD00000682349B0FBF1F0C82148431E494968F5
:103FE000891B884200D805E040211A48FEF788F86E
:103FF0000128ECD000BF194800681949B0FBF1F066
:1040000015494968891BB1FBF0F7E11704EB5171C1
:10401000C910695C4906090E2046E21704EB52728A
:10402000D210A954282F0BD9E11704EB5171C910F4
:10403000695C41F00101E21704EB5272D210A954FD
:10404000641C282CAADB01F0BBFA00F00BF800205E
:104050008EE7000000080140001000E0340000205E
:1040600040420F001FB50020009001900290039085
:1040700040200090002001900120029069460248F3
:10408000FDF7AEFE1FBD0000000801401FB5002077
:104090000090019002900390402000901120019028
:1040A000012002900320039069460248FDF798FE24
:1040B0001FBD0000000801400748006840F0807004
:1040C000054908600020054948600846006840F03E
:1040D0000100086070470000FCED00E0001000E007
:1040E00010B5044603E04FF47A7000F005F8201E86
:1040F000A4F10104F7D110BD10B5084B5968084B65
:104100001B68084CB3FBF4F303FB00F200E000BFB4
:10411000024B5B685B1A9342F9D310BD001000E0BC
:104120003400002040420F0010B503460C461846EC
:1041300001F0B4F810BD00207047000010B500F089
:1041400099F80520FFF7D8FF012000F053F805206B
:10415000FFF7D2FF4FF400610848FDF7D1FF044696
:10416000002000F047F80520FFF7C6FF00F0DAF85E
:104170000220FFF7C1FF204610BD0000000C0140E7
:1041800010B50446204600F069F80220FFF7B4FF9E
:10419000012000F02FF80520FFF7AEFF002000F00F
:1041A00029F80220FFF7A8FF10BD000070B5002518
:1041B00000F060F80220FFF79FFF00240FE00120CD
:1041C00000F018F84FF400610948FDF799FF10B1AD
:1041D000802020410543002000F00CF8641C082CCE
:1041E000EDDB00F09FF80220FFF786FF284670BD48
:1041F000000C014010B5044622464FF4806102488D
:10420000FDF786FF10BD0000000C014000B585B031
:1042100000BF1048806940F008000E4988610846D8
:10422000806900F00800009000BF00BF11200290DC
:1042300008150190012003900320049001A906486D
:10424000FDF7CEFD012291020348FDF761FF05B0A5
:1042500000BD000000100240000C014010B50446F3
:1042600022464FF400610248FDF752FF10BD0000E6
:10427000000C01401FB500200090019002900390B7
:1042800001904FF400600090012002900320039001
:1042900069460248FDF7A4FD1FBD0000000C014067
:1042A00010B586B000BF1D48806940F008001B496A
:1042B00088610846806900F00800019000BF00BFD7
:1042C0000020029003900490059011200390C814E0
:1042D0000290012004900320059002A91048FDF7E8
:1042E0007FFD0122D1020E48FDF712FF002411E0EC
:1042F00000224FF400610A48FDF70AFF0120FFF792
:10430000FBFE0122D1020648FDF702FF0120FFF764
:10431000F3FE641C0A2CEBDB06B010BD001002405B
:10432000000C01401FB50020009001900290039006
:10433000112001904FF400600090012002900320B2
:10434000039069460148FDF74BFD1FBD000C01407D
:1043500010B50120FFF782FF0120FFF74BFF05207A
:10436000FFF7CAFE0020FFF779FF0520FFF7C4FE24
:104370000020FFF73FFF0220FFF7BEFE10BD10B583
:104380000020FFF76BFF0520FFF7B6FE0120FFF7C7
:1043900031FF0520FFF7B0FE0120FFF75FFF0A2085
:1043A000FFF7AAFE10BD70B50546002419E0802174
:1043B0002141294009B1012100E000210846FFF711
:1043C0004DFF0220FFF798FE0120FFF713FF0520A5
:1043D000FFF792FE0020FFF70DFF0220FFF78CFE93
:1043E000641C082CE3DB70BD1CB5FDF7A9FEFEF7CD
:1043F00073FEFEF725FEFFF75FFE00F05BF900207D
:1044000000F0A0F8FFF796FC00F05EF8FFF7E4F983
:10441000FFF756FBFFF723F86420FFF758FC164818
:10442000012100230A02CDE9001014A1164801F071
:10443000B5FE1648012100230A02CDE9001014A19F
:10444000164801F0ABFE1648012100238022CDE979
:10445000001014A1164801F0A1FE16480121002306
:104460008022CDE9001014A1164801F097FE01F05A
:1044700017FA00BFFEE70000080000207261696EB5
:104480005F7461736B000000195400080C00002079
:1044900064687432325F7461736B0000E53D00083C
:1044A000100000206268313735305F7461736B0033
:1044B000D734000814000020626D703238305F7409
:1044C00061736B00EF39000810B5FFF79FFEFFF72F
:1044D000E7FE0120FFF7C2FE0120FFF78BFE0A2056
:1044E000FFF70AFE10BD2DE9F04106460C4601F02B
:1044F0003DF82046E11704EB5171C1F3C708E117FD
:1045000004EB5171C910A4EBC10119B108F101000C
:1045100000F0FF0800250FE07019C1B2002000F084
:1045200015F9002704E0002000F0B1F9781CC7B2AB
:10453000802FF8DB681CC5B24545EDDB01F040F883
:10454000BDE8F08170B5064601F010F800240EE0D9
:104550002146002000F0FAF8002504E0304600F083
:1045600096F9681CC5B2802DF8DB601CC4B2082C1B
:10457000EEDB01F025F870BD00B585B000BF17482F
:10458000806940F00800154988610846806900F09C
:104590000800009000BF00BF00BF0846806940F0DF
:1045A000080088610846806900F00800009000BF9C
:1045B00000BF881501900120029003900320049011
:1045C00001A90748FDF70CFC4FF40070019001A908
:1045D0000348FDF705FC05B000BD000000100240D7
:1045E000000C014010B5012211020548FDF790FDB5
:1045F00000224FF480710248FDF78AFD10BD0000D3
:10460000000C014010B5012211020A48FDF780FD9F
:10461000012251020748FDF77BFD00224FF4007193
:104620000448FDF775FD00224FF480710148FDF745
:104630006FFD10BD000C014010B5012211020748AA
:10464000FDF766FD00224FF400710448FDF760FDA0
:10465000012251020148FDF75BFD10BD000C014035
:1046600070B50446254600261EE005F0800080282F
:1046700005D1012281000E48FDF74AFD05E0002228
:104680004FF400710A48FDF743FD6806050E01224C
:1046900011020748FDF73CFD00224FF480710448E9
:1046A000FDF736FD701CC6B2082EDEDB70BD0000C3
:1046B000000C014010B5FFF75FFF6420FFF707FB18
:1046C000AE2000F0CEF8D52000F0CBF8802000F02E
:1046D000C8F8A82000F0C5F83F2000F0C2F8D320A9
:1046E00000F0BFF8002000F0BCF8402000F0B9F85E
:1046F000A12000F0B6F8C82000F0B3F8DA2000F0EE
:10470000B0F8122000F0ADF8812000F0AAF8CF2018
:1047100000F0A7F8D92000F0A4F8F12000F0A1F8EB
:10472000DB2000F09EF8302000F09BF8A42000F081
:1047300098F8A62000F095F88D2000F092F814204B
:1047400000F08FF8AF2000F08CF810BD70B5044673
:104750000D4605F1B001C8B200F083F804F00F0077
:1047600000F07FF8102141EA141000F07AF870BDD3
:104770002DE9F0478246884616461C46A6F12000E1
:10478000C6B22046E11704EB5171C1F3C709E11726
:1047900004EB5171C910A4EBC10119B109F1010079
:1047A00000F0FF09002535E008EB0500C1B25046D6
:1047B000FFF7CCFF204604EBD07149106943CFB21C
:1047C0001FE00C2C08D106EB4601144A02EB8101D4
:1047D000C85D00F05CF812E0102C06D1104901EB26
:1047E0000611C85D00F053F809E0182C07D106EB5C
:1047F000C6010C4A02EB8101C85D00F048F8781C44
:10480000C7B204EBD47149106A1C5143B942D8DCD9
:10481000681CC5B24D45C7DBBDE8F087D06C000809
:1048200044710008347700082DE9F04106460F4630
:1048300014461D4600F09AFE0CE022782B463946BD
:104840003046FFF795FF284605EBD07106EB610176
:10485000CEB2641C20780028EFD100F0B1FEBDE894
:10486000F08110B50446FFF7CDFE7820FFF7F8FE83
:10487000FFF7B8FE0020FFF7F3FEFFF7B3FE204678
:10488000FFF7EEFEFFF7AEFEFFF7D6FE10BD10B548
:104890000446FFF7B7FE7820FFF7E2FEFFF7A2FE1F
:1048A0004020FFF7DDFEFFF79DFE2046FFF7D8FE14
:1048B000FFF798FEFFF7C0FE10BD00B5034603E00A
:1048C00013F8010B00F0EAFC18780028F8D100BDBD
:1048D0002DE9F04105460E4616480768164800685F
:1048E000001D00F0E1FD681C38B936B112480168BE
:1048F000091D124800F02EFE1AE07C190E480068CF
:104900004460BC4207D20C480168091D0C4800688D
:1049100000F006FE0CE008480168091D094800681F
:1049200000F0FEFD08480068844201D20648046099
:10493000BDE8F0814C000020380000208C070020EA
:10494000400000203C0000206800002010B5044614
:1049500000F00CFE24480068401C234908602348EE
:10496000006840B9214804600846006801280DD15C
:1049700000F0F8F90AE01E48006838B91B480068E2
:10498000C06AE16A884201D8184804601948006882
:10499000401C184908600846006860641649E06ACF
:1049A0000968884202D91449E06A0860E16A01EBAB
:1049B0008101124A02EB8100211D00F0CBFD00F0C5
:1049C000FFFD0B48006868B108480068C06AE16AEA
:1049D000884207D24FF0805009490860BFF34F8FDB
:1049E000BFF36F8F10BD000048000020380000208A
:1049F000540000206400002050000020DC02002051
:104A000004ED00E008B500F0B1FD12480068E8B917
:104A1000114800F075FD114800F072FD0E48104974
:104A200008600E480F49086000200F4B0F4A102104
:104A300000900A2001F0ACF80649086008460068BA
:104A400020B10BA10348006800F072FE00F0B8FD31
:104A500008BD000084000020A0070020B40700204B
:104A60007C00002080000020C807002018080020DB
:104A7000546D72510000000010B516E000F076FD94
:104A80000C48C068C468201D00F00EFD0A4800688C
:104A9000401E0949086009480068401E074908602F
:104AA00000F08EFD204600F05EF804480068002803
:104AB000E4D110BD78070020480000204400002009
:104AC00070B504460D46206C70B1216CE068084456
:104AD000E0606168E068884201D32068E0602846B1
:104AE000226CE168FBF71DFD70BD2DE9F041044625
:104AF0000F4615464FF00008A66B206C40B92068A1
:104B000060BB606801F090FC80460020606025E09A
:104B10007DB93946226CA068FBF703FD216CA068C3
:104B20000844A060D4E90110884217D32068A0602F
:104B300014E03946226CE068FBF7F3FC216CE06876
:104B4000401AE0602168E068884203D2216C606806
:104B5000401AE060022D01D106B1761E701CA063E0
:104B60004046BDE8F08110B5044694F85D0030B9C8
:104B7000206B00F043FD204600F040FD1AE094F861
:104B80005D00012803D1204600F038FD12E094F8C2
:104B90005D00022801D1012000E0002050B900BFD3
:104BA000502080F31188BFF34F8FBFF36F8F00BF8A
:104BB00000BFFEE710BD00000146084A12681268F7
:104BC0000AB9012200E000220A600A6822B9034AF9
:104BD0001268D268106800E0002070477C00002056
:104BE00030B54FF42053174800F007042CB1C01D16
:104BF00020F00700134C041B1B1B0246124C2260C2
:104C00000024114D6C60D018083820F007000F4CBC
:104C1000206000240D4D2D686C600C4D2D682C60BB
:104C20001146441A4C60094C24680C60084D4C68CD
:104C30002C60084D4C682C604FF00044064D2C60F1
:104C400030BD0000780F0020900000209800002068
:104C5000A00000209C000020A400002000BFFFF75F
:104C60000BFF064800680128F9D94FF0805004492D
:104C70000860BFF34F8FBFF36F8FF0E7DC020020B7
:104C800004ED00E02DE9F04106460D461746984632
:104C9000069C0DB9246000E02760E66325640121CD
:104CA000204600F0E5FF84F84C80BDE8F0812DE956
:104CB000F05F82460F4690469B460A9E0C9C4FEA48
:104CC0008801A522206BFBF771FCA8F10100216B84
:104CD00001EB800929F0070909F0070008B9012054
:104CE00000E0002050B900BF502080F31188BFF3CE
:104CF0004F8FBFF36F8F00BF00BFFEE7002507E0B7
:104D0000795D04F134004155785D00B902E06D1C15
:104D1000102DF5D300BF002143200155382E00D3BC
:104D20003726E662E66400202065201D00F0F5FBD2
:104D300004F1180000F0F1FB2461C6F13800A06115
:104D4000646200206065A06584F85C005A465146A4
:104D5000484600F04FFB20600B9808B10B980460A8
:104D6000BDE8F09F10B5002407E004EB84010F4A72
:104D700002EB810000F0C4FB641C382CF5D30C4816
:104D800000F0BEFB0B4800F0BBFB0B4800F0B8FB8B
:104D90000A4800F0B5FB0A4800F0B2FB0448094994
:104DA000086004480849086010BD0000DC020020CB
:104DB0003C070020500700206407002078070020EF
:104DC0008C0700203C0000204000002010B5014668
:104DD000164800E0006803688B42FBD30246436834
:104DE00013448B4204D143684C682344436001461A
:104DF0000A464B6813440468A34211D10C4C036863
:104E00002468A34208D04B680468646823444B605C
:104E100003681B680B6005E0054B1B680B6001E035
:104E200003680B60884200D0016010BD9000002034
:104E3000980000202DE9F04104460D4616461F4615
:104E40004FF0000865602461B5420CD8F01BA169E1
:104E5000884202D34FF0010811E0211D0948006883
:104E600000F05EFB0BE0BE4204D2BD4202D34FF025
:104E7000010804E0211D0448006800F051FB404691
:104E8000BDE8F081800000207C00002070B5054660
:104E900000F06CFBA86B08B9012400E0002400F0CE
:104EA0008FFB204670BD70B5054600F05FFBA86B18
:104EB000E96B884201D1012400E0002400F080FB6E
:104EC000204670BDF8B505460F4616480068C06814
:104ED000C468201D00F0E8FAE06901281DD1A0692E
:104EE00041192B463A462046FFF7A4FFA8B10020FF
:104EF00003462A4601460090204601F0F1FB064693
:104F000056B900BF502080F31188BFF34F8FBFF315
:104F10006F8F00BF00BFFEE700BF2046616A884771
:104F2000F8BD00007C000020F0B587B082E0039857
:104F3000002811DA04AE56B900BF502080F3118862
:104F4000BFF34F8FBFF36F8F00BF00BFFEE7D6E9FF
:104F50000020B168904700BF039800286ADB059CD9
:104F6000606908B9012000E0002010B9201D00F0A0
:104F70009BFA02A800F0C0F8054603980A2857D209
:104F8000DFE800F009050731334F0608323400BF6F
:104F900000BF00BF00BF0498A269811803462A46DB
:104FA0002046FFF747FFE8B12046616A8847E0697D
:104FB000012817D1002000900498A169421800230D
:104FC0001946204601F08CFB074657B900BF502018
:104FD00080F31188BFF34F8FBFF36F8F00BF00BF07
:104FE000FEE700BF25E000BF23E000BF0498A061FA
:104FF000A06908B1012000E0002050B900BF502096
:1050000080F31188BFF34F8FBFF36F8F00BF00BFD6
:10501000FEE7A06941192B462A462046FFF70AFF02
:1050200007E094F82C0010B9204600F0E7FA00E001
:1050300000BF00BF002203A90448006800F0B4FFCD
:1050400000287FF474AF07B0F0BD0000840000209A
:10505000F8B505460C4600F081FC684600F04CF8B7
:105060000646009820BB44B9B54206D801F07AFA4A
:1050700031462846FFF726FF1CE03CB10E48006889
:10508000006808B9012000E000200446A91B224660
:105090000A48006800F062FB01F064FA50B94FF072
:1050A000805007490860BFF34F8FBFF36F8F01E057
:1050B00001F058FAF8BD00008000002084000020B4
:1050C00004ED00E00A490968096809B9012100E016
:1050D000002121B14FF0FF31064A116006E004497A
:1050E0000968C968C868034A4168116070470000D0
:1050F0003C0000206800002070B5044601F0ECF888
:10510000054607480068854204D200F00BF80120EC
:10511000206001E00020206001480560284670BD45
:105120008C0000202DE9F84332E024480068C06874
:10513000056822480068C068C468201D00F0B4F902
:105140002046616A8847E069012821D1A069461993
:10515000AE4207D966602461211D1848006800F03E
:10516000DFF915E0002003462A460146009020465C
:1051700001F0B6FA074657B900BF502080F31188F6
:10518000BFF34F8FBFF36F8F00BF00BFFEE700BFBD
:105190000A480068006808B9012000E000200028E3
:1051A000C3D00648D0F8008005480068034908606D
:1051B0000348C0F80080BDE8F88300007C000020B0
:1051C000800000200E480068401C08B9012000E063
:1051D000002050B900BF502080F31188BFF34F8FDB
:1051E000BFF36F8F00BF00BFFEE700BF502080F30A
:1051F0001188BFF34F8FBFF36F8F00BF00BFFEE773
:10520000A800002008B500BF6846FFF7D5FC04469B
:1052100020460099FFF71CFFFFF786FEF4E770B504
:10522000044600F0A3F994F9455010E0606A08B90B
:10523000012000E0002038B904F1240001F046F913
:1052400018B100F0EBFA00E003E0681E45B2002D53
:10525000ECDC00BFFF2084F8450000F0B1F900F05D
:1052600085F994F9445010E0206908B9012000E064
:10527000002048B904F1100001F028F908B100F04D
:10528000CDFA681E45B200E001E0002DECDC00BF65
:10529000FF2084F8440000F093F970BD00BF054979
:1052A000096801F040010029F9D0C1B2014A121D7C
:1052B00011607047004400402DE9F04104464FF072
:1052C000000800F04BFB4648006808B9FFF788FC6F
:1052D00044480068204000286BD1D4B1083404F061
:1052E0000700B0B104F00700C0F10800044404F066
:1052F000070008B9012000E0002050B900BF50208D
:1053000080F31188BFF34F8FBFF36F8F00BF00BFD3
:10531000FEE7002C4DD034480068844249D8334E13
:105320003046056801E02E462D686868A04202D22A
:1053300028680028F7D12A480068854239D03068AB
:1053400000F10808286830606868001B102819D927
:105350002F1907F0070008B9012000E0002050B91C
:1053600000BF502080F31188BFF34F8FBFF36F8FC2
:1053700000BF00BFFEE76868001B78606C603846BD
:10538000FFF724FD184968680968081A164908607B
:105390000846006816490968884203D21248006826
:1053A000134908600F49686809680843686000206D
:1053B000286001F0D7F808F0070008B9012000E0E4
:1053C000002050B900BF502080F31188BFF34F8FE9
:1053D000BFF36F8F00BF00BFFEE74046BDE8F0811E
:1053E00098000020A40000209C00002090000020D5
:1053F000A0000020001F4FF080730360001F21F009
:1054000001030360001F034B03601438026020385F
:1054100070470000C551000807E0FEF745FCFEF7A5
:105420009FFB4FF4FA7000F0BFF9F6E710B580214A
:105430000348FBF7C3F800200249087010BD0000C4
:10544000B4000020000000203EB502460023AA2040
:105450008DF800008DF8012004208DF80200CDF8B1
:105460000310002004E01DF800406340441CE0B23B
:105470000728F8DB8DF8073055208DF8080000204C
:105480000DE000BF074C246804F04004002CF9D064
:105490001DF80040034D2D1D2C60441CE0B209286E
:1054A000EFDB3EBD0044004001460A69D1E901300E
:1054B0009860D1E9010358605068884201D188683A
:1054C0005060002008611068401E1060106870472E
:1054D000034B0360034B0B60802313607047000095
:1054E000B808002018090020034B0360034B0B6031
:1054F0004FF4807313607047180B0020780B002066
:1055000000F1080141604FF0FF31816000F10801B6
:10551000C160016100210160704700210161704795
:1055200010B502460B685C1C0CB9106907E002F16B
:10553000080000E04068446824689C42FAD9446846
:105540004C604C68A160886041600A611468641C0A
:10555000146010BD42684A6093688B60936859601C
:105560009160086103685B1C0360704700BF5020B6
:1055700080F31188BFF34F8FBFF36F8F00BF0E48CA
:105580000068401C0C49086008460068012812D1D8
:105590000A480068C0B208B9012000E0002050B9F4
:1055A00000BF502080F31188BFF34F8FBFF36F8F80
:1055B00000BF00BFFEE77047A800002004ED00E038
:1055C0000D48006850B900BF502080F31188BFF328
:1055D0004F8FBFF36F8F00BF00BFFEE70648006824
:1055E000401E054908600846006820B9002080F385
:1055F000118800BF00BF7047A800002070B50646A4
:105600003546002E3FD0083D2C461F49606809688A
:10561000084008B1012000E0002050B900BF502030
:1056200080F31188BFF34F8FBFF36F8F00BF00BFB0
:10563000FEE7206808B9012000E0002050B900BF53
:10564000502080F31188BFF34F8FBFF36F8F00BFDF
:1056500000BFFEE70C4960680968084098B12068FF
:1056600088B90949606809688843606000F076F984
:105670000649606809680844044908602046FFF745
:10568000A5FB00F06FFF70BDA40000209C0000206F
:1056900000204FF0E02108618861064800684FF45F
:1056A0007A71B0FBF1F0401E4FF0E0214861072015
:1056B000086170473400002070B5FAF7BDFD04465C
:1056C000102C16D304F1E02090F8F0531548007820
:1056D000854201DB012000E0002050B900BF5020CE
:1056E00080F31188BFF34F8FBFF36F8F00BF00BFF0
:1056F000FEE70D48006800F4E0600C490968884244
:1057000001D8012000E0002050B900BF502080F3F4
:105710001188BFF34F8FBFF36F8F00BF00BFFEE74D
:1057200070BD0000AC0000200CED00E0B0000020D7
:10573000024600200BE0084B53F8303033B9064BDB
:1057400043F8301003EBC0035A6002E0401C082805
:10575000F1D300BF704700009C0200202DE9F0410A
:1057600005460E4617462C46FFF700FF94F9440005
:10577000401C10B9002084F8440094F94500401CF6
:1057800010B9002084F84500FFF71AFFA06B28B974
:105790003A46314604F1240000F062F82046FFF753
:1057A0003EFDBDE8F081000070B504460025D4B18F
:1057B0001248006808B9012000E0002050B900BF7D
:1057C000502080F31188BFF34F8FBFF36F8F00BF5E
:1057D00000BFFEE700F0C2F800212046FFF778F88E
:1057E00000F0C0FE05463DB94FF080500449086006
:1057F000BFF34F8FBFF36F8F70BD000070000020AC
:1058000004ED00E00349096801600349096841604B
:1058100070470000600000204C000020012001497A
:10582000086070475C00002070B504460D4654B90E
:1058300000BF502080F31188BFF34F8FBFF36F8FED
:1058400000BF00BFFEE70548016818312046FFF79A
:1058500067FE01212846FFF73BF870BD38000020A5
:1058600070B505460E46144655B900BF502080F36A
:105870001188BFF34F8FBFF36F8F00BF00BFFEE7EC
:105880000648016818312846FFF764FE0CB14FF056
:10589000FF3621463046FFF71BF870BD3800002068
:1058A00010B586B000200590049003AA04A905A8AD
:1058B000FFF70EFE0022DDE904101346CDE90021BA
:1058C00002901FA12048039A00F09AFC1F4908602B
:1058D0000846006808B1012400E00024012C02D130
:1058E00000F0C2FE0446012C17D100BF502080F307
:1058F0001188BFF34F8FBFF36F8F00BF4FF0FF30A2
:10590000134908600120134908600020124908600B
:10591000FEF7DCF900F0C0F810E0601C08B10120CF
:1059200000E0002050B900BF502080F31188BFF381
:105930004F8FBFF36F8F00BF00BFFEE706B010BDF3
:1059400049444C45000000005D4C00086C000020FC
:1059500068000020540000204C000020024800682D
:10596000401C0149086070477000002010B52B48AA
:10597000006818B101202A4908604EE0002028493B
:105980000860FEF7D8FB27490860084600682649EA
:10599000096888420BD92549096801F15400496D0D
:1059A000204A1268204B1B68D21A114401601D481E
:1059B00000681D4908601E4801680CE051B900BF2D
:1059C000502080F31188BFF34F8FBFF36F8F00BF5C
:1059D00000BFFEE7491E01EB8100164A52F8200085
:1059E00008B9012000E000200028E7D101EB810286
:1059F000104B03EB820042685268426000F10802DB
:105A00004368934202D14268526842604268D26859
:105A1000064B1A600648016000BF10BD70000020F0
:105A20005C00002078000020740000203800002076
:105A300050000020DC0200202DE9F04104460D4614
:105A400011484668114800681149B0FBF1F000FBAD
:105A500005F708E00C484068801BB84203D34FF0BC
:105A6000FF30BDE8F08140210A48FCF749FBA04225
:105A7000F0D1064800680649B0FBF1F002494968D8
:105A8000891BB1FBF0F0ECE7001000E034000020CF
:105A900040420F00000801401CB538490846007814
:105AA0000190FF200A4610700846007800909DF88B
:105AB000000000F0F0009DF80020904201D101208C
:105AC00000E0002050B900BF502080F31188BFF3E0
:105AD0004F8FBFF36F8F00BF00BFFEE79DF8000040
