:020000040800F2
:10000000C805002005010008CD200008C520000813
:10001000C92000084109000855240008000000001C
:10002000000000000000000000000000F9200008AF
:100030004509000800000000CF200008FB20000850
:100040001F0100081F0100081F0100081F01000810
:100050001F0100081F0100081F0100081F01000800
:100060001F0100081F0100081F0100081F010008F0
:100070001F0100081F0100081F0100081F010008E0
:100080001F0100081F0100081F0100081F010008D0
:100090001F0100081F0100081F0100081F010008C0
:1000A0001F0100081F0100081F0100081F010008B0
:1000B000AD2100081F010008BD2100081F01000834
:1000C0001F0100081F0100081F0100081F01000890
:1000D0001F0100081F010008D12300081F010008AC
:1000E0001F0100081F0100081F010008DFF810D0E1
:1000F00000F09EFB00480047B13D0008AFF30080D0
:10010000C80500200648804706480047FEE7FEE78E
:10011000FEE7FEE7FEE7FEE7FEE7FEE7FEE7FEE7B7
:10012000A9210008ED0000082DE9F0410024061B7C
:10013000254671F1000605DA01240027D0EB0700FF
:1001400067EB0101161E73F1000605DA0027D2EBFA
:100150000702012567EB030300F0D4F986460E463B
:1001600017469C46AC4204D00025D0EB050E65EB4B
:10017000010624B10020D2EB000760EB030C7046AF
:1001800031463A466346BDE8F081D2B201E000F85C
:10019000012B491EFBD270470022F6E710B513462B
:1001A0000A4604461946FFF7F0FF204610BD421CE0
:1001B00010F8011B0029FBD1801A704730B480EA87
:1001C000010202F0004530F0004221F0004013D05F
:1001D00090B1C30DD40DC2F31601C0F31600E41A9A
:1001E00041F4000140F400027D34914201D3641CCB
:1001F00000E04900002C02DA30BC002070474FF4C8
:1002000000000023914201D3891A034340084FEABA
:100210004101F7D151B1914202D14FF0004105E0C7
:1002200002D24FF0010101E06FF0010103EBC45075
:10023000284430BC00F0C8B92DE9FE4F804681EA61
:100240000300C00F0C46009021F0004123F0004550
:10025000B8EB0200A94105D24046214690461C4613
:100260000B46024623F00040104347D0270DC7F34A
:100270000A00C3F30A510290401A019040286BDA39
:10028000C3F3130040F4801B0098924620B1002372
:10029000D2EB030A63EB0B0B01985946C0F1400205
:1002A000504600F060F906460D4650465946019A00
:1002B00000F078F910EB08006141002487EA115240
:1002C00084EAE7731A4340D0009A62B3019A012A84
:1002D0004FEA075215DC001B61EB02014FF00042B0
:1002E00002EA0752CDE90042001C41F58011324676
:1002F0002B4600F0AFF903B0BDE8F08F4046214631
:10030000F9E7001B61EB0201001C41F580130018A6
:100310005B412018A2F5001747EB030140EAD570B6
:10032000B6196D4111E06D084FEA360645EAC07511
:100330004FEA0752001B61EB0201001C41F58011DE
:1003400049084FEA30000019514132462B4603B0AC
:10035000BDE8F04F00F06FB9009801224000002383
:10036000D0EB020263EBE073009821464FEAE074A1
:10037000B8EB000061EB0401E9E783F000435BE7C1
:1003800081F0004158E72DE9FE4F81EA030404F0B3
:10039000004421F0004100944FF0000B23F0004393
:1003A00050EA01045ED052EA03045BD0C3F30A545E
:1003B000C1F30A552C44A4F2F3340194A0FB025477
:1003C000C1F3130141F48011C3F3130343F4801309
:1003D00001FB024400FB034E840A970A44EA81545D
:1003E00047EA8357A4FB076802958D0A05FB07853A
:1003F0004FEA932C04FB0C542705029D4FEA065844
:1004000047EA1637B5EB08056EEB070C870E920E20
:1004100047EA811742EA8312A7FB0201B6EB0B0100
:1004200064EB00042B0D43EA0C335E1844EB1C50C4
:10043000DA465146E7FB0201C5F313044FEA0B33DA
:1004400043EA14534FEA0432019C43EA0603A4F141
:100450000C040294009CCDE900B400F0FBF803B05A
:10046000BDE8F08F00200146F9E7C10F80EAE07097
:100470000844CA079623002100F0AFB89623002253
:10048000114600F0AAB8F0B4CA17CB0F5040514043
:10049000C61841F100054FEAC372314628004FF0FB
:1004A000960303D0B623F0BC00F097B83046002185
:1004B000F9E700F0004230F000400AD0C10D01F52C
:1004C0006071C0F3160042EA0151C20840071143AF
:1004D000704700200146704730B50B4601460020AA
:1004E0002022012409E021FA02F59D4205D303FAF6
:1004F00002F5491B04FA02F52844151EA2F1010277
:10050000F1DC30BD2DE9F05F0546002092469B46A8
:1005100088460646814640241BE028464146474619
:10052000224600F02FF853465A46C01A914110D384
:1005300011461846224600F016F82D1A67EB0108FE
:100540004F4622460120002100F00DF817EB00096C
:100550004E41201EA4F10104DFDC484631462A4604
:100560004346BDE8F09F202A04DB203A00FA02F15E
:10057000002070479140C2F1200320FA03F3194391
:1005800090407047202A04DB203A21FA02F0002133
:10059000704721FA02F3D040C2F120029140084393
:1005A00019467047202A06DBCB17203A41FA02F0A1
:1005B00043EAE07306E041FA02F3D040C2F12002C0
:1005C00091400843194670470029A8BF7047401C56
:1005D000490008BF20F00100704710B4B0FA80FC59
:1005E00000FA0CF050EA010404BF10BC704749B196
:1005F000CCF1200421FA04F411FA0CF118BF012106
:1006000021430843A3EB0C01CB1D4FEA00614FEAE5
:10061000102042BF002010BC704700EBC3501044B4
:100620000029A4BF10BC7047401C490008BF20F03F
:10063000010010BC704710B5141E73F1000408DAF5
:10064000401C41F1000192185B411A4301D120F096
:10065000010010BD2DE9F04D92469B4611B1B1FA53
:1006600081F202E0B0FA80F220329046FFF77BFF81
:1006700004460F4640EA0A0041EA0B0153465A4637
:10068000084313D0114653EA010019D0C8F14002C3
:100690005046FFF777FF05460E46504659464246FC
:1006A000FFF761FF084305D0012004E020463946EA
:1006B000BDE8F08D0020054346EAE0762C43374341
:1006C0000A986305E40AA0EB08000022FD0A44EA48
:1006D00047540A3002D500200146E9E70105101908
:1006E0006941DDE9084500196941BDE8F04DA2E71F
:1006F0002DE9F04D81EA030404F0004B21F00045A0
:1007000014464FF0000A23F0004150EA050220D0C1
:1007100054EA01021DD0C5F30A570246C5F313037C
:10072000C1F31300C1F30A5640F4801543F480135B
:10073000A7EB0608101BD64608F2FD3873EB050040
:1007400002D308F1010801E092185B41B8F1000FF3
:1007500003DA00200146BDE8F08D00204FF480113F
:10076000064684460EE0171B73EB050705D3121BE4
:1007700063EB050306434CEA010C49084FEA3000DD
:1007800092185B4150EA0107EDD152EA030012D002
:1007900082EA040083EA0501084305D0101BAB413F
:1007A00006D20122002306E000224FF0004302E0BF
:1007B0006FF0010253101AEB06004CEB085110EBDE
:1007C0000A0041EB0B01BDE8F04DFFF734BFC1F368
:1007D0000A52C1F3130140F2FF3341F480119A42EF
:1007E00002DA00200146704740F233439A42A2F2F7
:1007F000334202DC5242FFF7C5BEFFF7B4BE000031
:1008000030B5041E71F1000404DB4FF00044404297
:1008100064EB0101141E73F1000405DB1C464FF06C
:100820000043524263EB0403994208BF904230BD3B
:10083000064C074D06E0E06840F0010394E807002D
:1008400098471034AC42F6D3FFF754FCC466000856
:10085000E466000870B5044600252068806800F052
:10086000010018B32068806820F0010021688860CA
:1008700000F018FD054613E000F014FD401B0228AF
:100880000ED92068806800F0010048B1A06A40F0ED
:100890001000A062E06A40F00100E062012070BD3B
:1008A0002068806800F001000028E5D10020F6E70C
:1008B00038B504460025002000902068806800F0CC
:1008C000010078BB2068806840F0010021688860E2
:1008D000194800681949B0FBF1F0009002E0009857
:1008E000401E009000980028F9D100F0DBFC05467E
:1008F00019E000F0D7FC401B022814D9206880685A
:1009000000F0010078B9A06A40F01000A062E06A2F
:1009100040F00100E06200BF002084F8240000BF26
:10092000012038BD05E02068806800F00100002843
:10093000DFD00020F5E700000000002040420F005B
:1009400000BFFEE77047000038B5024600230020D4
:10095000009000BF92F82400012801D1022038BD88
:10096000012082F8240000BF4868072812D21068CE
:10097000406B0C79641E04EB84051F24AC40A0433B
:100980000D796D1E05EB85050C68AC40204314689D
:10099000606327E048680D2812D21068006B0C795C
:1009A000E41F04EB84051F24AC40A0430D79ED1F28
:1009B00005EB85050C68AC4020431468206311E00A
:1009C0001068C06A0C790D3C04EB84051F24AC4010
:1009D000A0430D790D3D05EB85050C68AC40204327
:1009E0001468E06208680A2812D31068C0680C789E
:1009F0000A3C04EB44050724AC40A0430D780A3DB3
:100A000005EB45058C68AC4020431468E0600FE0BE
:100A1000106800690C7804EB44050724AC40A0433F
:100A20000D7805EB45058C68AC40204314682061C7
:100A30000868102802D00868112827D1174C1068C0
:100A4000A0421ED11068806800F40000F0B9106860
:100A5000806840F400001468A0600868102815D170
:100A60000F4800680F4CB0FBF4F000EB8000400032
:100A7000009002E00098401E009000980028F9D1F4
:100A800004E0906A40F020009062012300BF002043
:100A900082F8240000BF184661E7000000240140EE
:100AA0000000002040420F0001460868C06C7047FB
:100AB0002DE9F0410446002700250026A84614B978
:100AC0000120BDE8F081A06810B1207D00B100BF19
:100AD000A06A30B90020E06284F82400204600F0CB
:100AE00089F82046FFF7B6FE0746A06A00F010001E
:100AF000002873D1002F71D1A06A20F4885040F0F3
:100B00000200A062E16960680843217B40EA41007D
:100B10000643A068B0F5807F02D0A068012802D10A
:100B20004FF4807000E000200543207D012811D1A2
:100B3000207B38B9A069401E4FF4006141EA403083
:100B4000054307E0A06A40F02000A062E06A40F0A0
:100B50000100E0622068406820F469402843216871
:100B600048602068806821490840304321688860D7
:100B7000A068B0F5807F02D0A068012802D14FF4B0
:100B8000807000E00020B0F5807F03D1208A401EF5
:100B90004FEA00582068C06A20F4700040EA08005C
:100BA0002168C8622068806811490840B04208D1B5
:100BB0000020E062A06A20F0020040F00100A06284
:100BC00011E0A06A20F0020040F01000A062E06A8C
:100BD00040F00100E062012705E0FFE7A06A40F075
:100BE0001000A062012738466BE70000FDF7E1FF27
:100BF000FE0E1FFF10B586B0044600200290039041
:100C0000049005901949206888422CD100BF1848EB
:100C1000806940F40070164988610846806900F4D4
:100C20000070019000BF00BF00BF0846806940F01F
:100C3000080088610846806900F00800019000BF44
:100C400000BF01200290032003900020049002A91D
:100C5000084800F089F90648406820F4404040F414
:100C600000400349486006B010BD00000024014068
:100C700000100240000C0140F8B504460D46002665
:100C800000200090002700F00DFB064620688068D9
:100C900000F4807050B1A06A40F02000A06200BF54
:100CA000002084F8240000BF0120F8BD20684068BF
:100CB00000F4807020BB2068C06A00F47000F8B9AE
:100CC00017E0681CA8B125B100F0ECFA801BA8421F
:100CD0000FD92068006800F0020050B9A06A40F007
:100CE0000400A06200BF002084F8240000BF03209D
:100CF000DBE72068006800F002000028E1D053E044
:100D0000022000F07FFB38490968B1FBF0F0216850
:100D10000969364A114091B92168C9689211114098
:100D200069B921680969324A114031B92168C96835
:100D30009211114009B9142117E0292115E0216809
:100D400009692B4A114021B92168C96892111140E3
:100D500041B121680969274A114029B92168C96848
:100D6000114009B9542100E0FC2100FB01F718E013
:100D7000681C98B125B100F095FA801BA8420DD9E6
:100D80000098B8420AD2A06A40F00400A06200BFF6
:100D9000002084F8240000BF032086E70098401C50
:100DA00000900098B842E3D36FF012002168086009
:100DB000A06A40F40070A0622068806800F460209F
:100DC000B0F5602F0DD1207B58B9A06A20F4807057
:100DD000A062A06A00F4805018B9A06A40F0010037
:100DE000A062002061E70000000000202449922456
:100DF000922449124992240070B50446002500BF90
:100E000094F82400012801D1022070BD012084F84B
:100E1000240000BF2046FFF74BFD0546002D77D18B
:100E2000A06A40F20121884340F48070A0623C49EE
:100E30002068884208D13B48006800F4702008B957
:100E4000012002E0002000E0012078B1A06A20F437
:100E50008010A0622068406800F4806000B3A06A3F
:100E600020F4005040F48050A06219E0A06A40F4E1
:100E70008010A0622B49091F2068884203D02849AE
:100E80002068884204D12748006800F4806000E0B0
:100E9000002028B1A06A20F4005040F48050A062E5
:100EA000A06A00F4805020B1E06A20F00600E06201
:100EB00001E00020E06200BF002084F8240000BFB1
:100EC000C01E216808602068806800F46020B0F5CA
:100ED000602F16D112492068884208D11148006855
:100EE00000F4702008B9012002E0002000E0012099
:100EF00038B12068806840F4A000216888600CE068
:100F000006E02068806840F480102168886004E072
:100F100000BF002084F8240000BF284675E70000C9
:100F2000002801400424014070B50446002500BF9C
:100F300094F82400012801D1022070BD012084F81A
:100F4000240000BF2046FFF785FC05462DB9A06AA6
:100F500020F4885040F00100A06200BF002084F817
:100F6000240000BF2846E8E72DE9F84703460022A1
:100F700094466EE14FF0010808FA02F4D1F80080BF
:100F800008EA0400A0427DD1DFF8DCA2D1F8048099
:100F9000A8EB0A09D0453AD014DCB8F1030F50D0C1
:100FA00009DCB8F1000F31D0B8F1010F1CD0B8F155
:100FB000020F49D120E0B8F1110F18D0B8F1120F8B
:100FC00042D11EE0B9F5881F25D006DCB9F5803F77
:100FD00020D0B9F5801F37D11AE0B9F5001F18D01D
:100FE000B9F5041F30D117E0D1F80CC02DE0D1F8CD
:100FF0000C8008F1040C28E0D1F80C8008F1080CF2
:1010000023E0D1F80C8008F10C0C1EE000BF00BFFB
:1010100000BF00BF00BF00BFD1F80880B8F1000FCB
:1010200002D14FF0040C0BE0D1F80880B8F1010FA9
:1010300003D14FF0080C1C6102E04FF0080C5C611A
:1010400003E04FF0000C00E000BF00BFFF2801D814
:10105000984601E003F104084646FF2802D84FEA0B
:10106000820803E0A2F108084FEA88084746D6F84C
:1010700000804FF00F0909FA07F928EA09080CFA6D
:1010800007F900E088E048EA0908C6F80080D1F8CE
:10109000048008F08058B8F1805F7DD100BFDFF890
:1010A000CC81D8F8188048F00108DFF8C091C9F861
:1010B0001880C846D8F8188008F00108CDF80080DC
:1010C00000BF00BF4FEAB9384FEA920958F82950DB
:1010D0004FEA82784FEA18794FF00F0808FA09F8BA
:1010E00025EA0805DFF88881434502D14FF0000862
:1010F00016E0DFF88081434502D14FF001080FE090
:10110000DFF87481434502D14FF0020808E0DFF8B0
:101110006C81434502D14FF0030801E04FF0040811
:101120004FEA82794FEA197908FA09F848EA050581
:10113000DFF84C814FEA920948F82950D1F8048031
:1011400008F48018B8F5801F0AD1DFF83881D8F884
:10115000008048EA0008DFF82C91C9F8008009E017
:10116000DFF82081D8F8008028EA0008DFF8149121
:10117000C9F80080D1F8048008F40018B8F5001F01
:1011800010D1DFF8008108F10408D8F8008048EA9F
:101190000008DFF8F09000E05AE009F10409C9F80E
:1011A00000800DE0DFF8DC8008F10408D8F800804A
:1011B00028EA0008DFF8CC9009F10409C9F800809A
:1011C000D1F8048008F40038B8F5003F0ED1DFF8FC
:1011D000B480A8F10408D8F8008048EA0008DFF8D5
:1011E000A490A9F10409C9F800800DE0DFF894800B
:1011F000A8F10408D8F8008028EA0008DFF88490F5
:10120000A9F10409C9F80080D1F8048008F48038F5
:10121000B8F5803F0ED1DFF86C80A8F10808D8F847
:10122000008048EA0008DFF85C90A9F10809C9F8D5
:1012300000800DE0DFF84C80A8F10808D8F80080A5
:1012400028EA0008DFF83C90A9F10809C9F80080F5
:10125000521CD1F8008028FA02F8B8F1000F7FF490
:1012600089AEBDE8F88700000000111000100240B0
:1012700000080140000C0140001001400014014032
:101280000800014008040140024693680B400BB17E
:10129000012000E0002070470AB1016101E00B0469
:1012A0000361704701480068704700001800002083
:1012B00003480068034909780844014908607047F9
:1012C000180000202000002010B50848006840F0F9
:1012D000100006490860032000F080F80F2000F09D
:1012E00007F800F02BF8002010BD0000002002409D
:1012F00070B504460E4800784FF47A71B1FBF0F0F7
:101300000C490968B1FBF0F5284600F04FFC08B124
:10131000012070BD102C07D200222146501E00F083
:101320001EF80548046001E00120F2E70020F0E724
:1013300020000020000000201C0000207047014613
:101340000846002809DB00F01F0301229A404309E8
:101350009B0003F1E023C3F8002100BF70472DE993
:10136000F05F80460D461646002701F099F80746C3
:1013700039462A46334601F00700C0F1070ABAF1A0
:10138000040F02D94FF0040A01E0C0F1070AD14668
:1013900000F1040ABAF1070F02D24FF0000A01E08F
:1013A000A0F1030AD4464FF0010A0AFA09FAAAF199
:1013B000010A0AEA020A0AFA0CFA4FF0010B0BFAC8
:1013C0000CFBABF1010B0BEA030B4AEA0B042146C1
:1013D000404601F06DF8BDE8F09F000000BF00F04E
:1013E0000702064B19684FF6FF031940044B0B43E5
:1013F00043EA0221014B196000BF70470CED00E089
:101400000000FA052DE9F04706464FF000080025D8
:1014100000270024A146012E31D0022E56D0102ED6
:101420005FD132484468006800F0807008B33048EB
:10143000C4F38341475C04F4803078B12B484068A2
:10144000C0F340402B4911F8008004F4803040B1D3
:101450002948B0FBF8F000FB07F502E0274807FB3E
:1014600000F52248406800F48000B0F5800F01D1FB
:10147000A94603E068000321B0FBF1F932E01B4804
:10148000046A04F44070B0F5807F05D104F00200D6
:1014900010B14FF4004918E004F44070B0F5007F3B
:1014A00007D11248406A00F0020010B149F64049E5
:1014B0000BE004F44070B0F5407F06D10B480068A3
:1014C00000F4003008B14FF224490BE000F0F4F8CA
:1014D00006494968C1F38131491C4900B0FBF1F963
:1014E00000E000BF00BF4846BDE8F08700100240A2
:1014F000B2660008C266000800127A0000093D00CA
:1015000070B504460D460CB9012070BD5A480068FC
:1015100000F00700A8420ED25748006820F00700EC
:101520002843554908600846006800F00700A842B3
:1015300001D00120E9E7207800F0020002281DD147
:10154000207800F00400042805D14C48406840F49D
:10155000E0604A494860207800F00800082805D17A
:101560004648406840F460504449486043484068F9
:1015700020F0F000A168084340494860207800F05E
:10158000010078B36068012806D13C48006800F487
:10159000003090B90120B8E76068022806D13748CA
:1015A000006800F0007040B90120AEE733480068E1
:1015B00000F0020008B90120A7E73048406820F099
:1015C0000300616808432D494860FFF76BFE06463B
:1015D00009E0FFF767FE801B41F28831884202D99B
:1015E000032092E707E02548406800F00C0061689E
:1015F000B0EB810FEDD12048006800F00700A84251
:101600000ED91D48006820F0070028431A490860D9
:101610000846006800F00700A84201D0012074E7E6
:10162000207800F00400042807D11448406820F412
:10163000E060E168084311494860207800F0080044
:10164000082808D10D48406820F46050216940EA1C
:10165000C1000A49486000F03FF808494968C1F3F1
:101660000311074A515CC8400649086006480068F3
:10167000FFF73EFE002048E7002002400010024035
:10168000D0420008000000201C0000200148006833
:10169000704700000000002000B5FFF7F7FF044985
:1016A0004968C1F30221034A515CC84000BD0000F3
:1016B00000100240E042000800B5FFF7E7FF0449D0
:1016C0004968C1F3C221034A515CC84000BD000013
:1016D00000100240E042000870B500210022002402
:1016E00000230020134D696801F00C05F5B1042DAD
:1016F00002D0082D19D101E00F4819E00F4DC1F3B8
:101700008346AB5D01F4803555B10A4D6D68C5F374
:1017100040450B4E725D084D5D43B5FBF2F402E0AF
:10172000084D03FB05F4204602E000BF024800BF5D
:1017300000BF70BD0010024000127A00A0660008D1
:10174000B066000800093D00F8B504460CB9012058
:10175000F8BD207800F00100002878D0F8484068F3
:1017600000F00C0004280CD0F548406800F00C0094
:10177000082811D1F248406800F48030B0F5803F6D
:101780000AD1EF48006800F4003000285FD060689C
:1017900000285CD10120DBE700BF6068B0F5803F26
:1017A00006D1E748006840F48030E549086028E049
:1017B000606858B9E248006820F48030E049086069
:1017C0000846006820F4802008601AE06068B0F5E0
:1017D000A02F0BD1DA48006840F48020D849086077
:1017E0000846006840F4803008600AE0D448006889
:1017F00020F48030D24908600846006820F4802038
:10180000086000BF606888B1FFF74CFD054606E040
:10181000FFF748FD401B642801D9032098E7C8481A
:10182000006800F400300028F2D010E0FFF73AFD25
:10183000054606E0FFF736FD401B642801D903206A
:1018400086E7BF48006800F400300028F2D1207815
:1018500000F00200022857D1B948406800F00C009F
:1018600050B1B748406800F00C00082818D1B448BF
:10187000406800F4803098B9B148006800F0020078
:1018800020B12069012801D0012061E7AC4800683F
:1018900020F0F800616940EAC100A949086033E01E
:1018A0002069E8B10120A7490860FFF7FBFC054665
:1018B00006E0FFF7F7FC401B022801D9032047E7A9
:1018C0009F48006800F002000028F2D09C480068A1
:1018D00020F0F800616940EAC1009949086013E00E
:1018E000002098490860FFF7DDFC054606E0FFF799
:1018F000D9FC401B022801D9032029E79048006841
:1019000000F002000028F2D1207800F0080008283A
:101910002DD1A069B8B101208B490860FFF7C2FC46
:10192000054606E0FFF7BEFC401B022801D9032054
:101930000EE78348406A00F002000028F2D0012040
:1019400000F0C6FB13E000207F490860FFF7AAFC07
:10195000054606E0FFF7A6FC401B022801D903203C
:10196000F6E67748406A00F002000028F2D12078BD
:1019700000F00400042873D100277148C06900F00A
:10198000805070B900BF6E48C06940F080506C490B
:10199000C8610846C06900F08050009000BF00BFD9
:1019A00001276A48006800F48070B0B96748006891
:1019B00040F4807065490860FFF774FC054606E056
:1019C000FFF770FC401B642801D90320C0E65F4884
:1019D000006800F480700028F2D000BFE0680128A1
:1019E00006D15748006A40F001005549086227E0D7
:1019F000E06858B95248006A20F001005049086276
:101A00000846006A20F00400086219E0E068052832
:101A10000BD14B48006A40F004004949086208466F
:101A2000006A40F0010008620AE04548006A20F0C0
:101A30000100434908620846006A20F00400086279
:101A400000BFE068A0B1FFF72DFC054609E0FFF7F5
:101A500029FC401B41F28831884202D9032077E6F5
:101A600022E03748006A00F002000028EFD012E0C0
:101A7000FFF718FC054608E0FFF714FC401B41F295
:101A80008831884201D9032062E62D48006A00F0BF
:101A900002000028F0D1012F05D12948C06920F0AB
:101AA00080502749C86100BFE069C8B32448406836
:101AB00000F00C00082860D0E069022848D100201E
:101AC00020490866FFF7EEFB054606E0FFF7EAFB54
:101AD000401B022801D903203AE61948006800F0AB
:101AE00000700028F2D1206AB0F5803F07D1144879
:101AF000406820F40030A168084311494860D4E9E7
:101B0000080108430E49496821F4741108430C493F
:101B1000486001200B490866FFF7C4FB054607E053
:101B20003DE0FFF7BFFB401B022801D903200FE671
:101B30000348006800F000700028F2D02FE0000099
:101B40000010024000004242800442420070004007
:101B5000002014490866FFF7A5FB054606E0FFF7DD
:101B6000A1FB401B022801D90320F1E50E480068C3
:101B700000F000700028F2D111E0E069012800D1E6
:101B8000E6E50948466806F48031206A814204D1BE
:101B900006F47011606A814201D00120D8E500206E
:101BA000D6E50000000042420010024070B5044635
:101BB0002546681EB0F1807F01D301200FE0681E2A
:101BC0004FF0E02148610F214FF0FF3000F070FC32
:101BD00000204FF0E021886107200861002070BDDF
:101BE0007047704710B504460CB9012010BD94F839
:101BF0003D0028B9002084F83C00204600F025F87C
:101C0000022084F83D00211D206800F0DFFA012049
:101C100084F8460000BF84F83E0001213F200155B2
:101C2000402001554120015500BF00BF012084F82C
:101C3000420043200155442001554520015500BF75
:101C4000012084F83D000020D0E77047014691F85C
:101C50003D00012801D001207047022081F83D009D
:101C60000868C06840F001000B68D860124B086833
:101C700098420BD00868B0F1804F07D00F4B08682E
:101C8000984203D00E4B086898420CD108688068CF
:101C900000F00702062A0CD00868006840F0010036
:101CA0000B68186005E00868006840F001000B68E8
:101CB00018600020D0E70000002C01400004004024
:101CC0000008004010B504462068B0F1804F10D1E4
:101CD0000421084800F0EEF8074908600020054993
:101CE00009684862044800680A21B0FBF1F0034922
:101CF000086010BD280000200C0000200400002017
:101D000010B5044620680069C0F34000D8B12068CF
:101D1000C068C0F34000B0B16FF0020021680861F4
:101D2000012020772068806900F0030018B1204668
:101D3000FFF7C8FF05E0204600F0ADF8204600F0B0
:101D4000ABF80020207720680069C0F38000D8B18C
:101D50002068C068C0F38000B0B16FF00400216853
:101D60000861022020772068806900F4407018B173
:101D70002046FFF7A7FF05E0204600F08CF820463C
:101D800000F08AF80020207720680069C0F3C000C6
:101D9000D8B12068C068C0F3C000B0B16FF00800CF
:101DA00021680861042020772068C06900F00300E2
:101DB00018B12046FFF786FF05E0204600F06BF8DB
:101DC000204600F069F80020207720680069C0F301
:101DD0000010D8B12068C068C0F30010B0B16FF037
:101DE000100021680861082020772068C06900F48D
:101DF000407018B12046FFF765FF05E0204600F06F
:101E00004AF8204600F048F8002020772068006952
:101E100000F0010058B12068C06800F0010030B146
:101E20006FF0010021680861204600F037F8206853
:101E30000069C0F3C01058B12068C068C0F3C0107A
:101E400030B16FF08000216808612046FFF7C8FEBE
:101E500020680069C0F3801058B12068C068C0F3E2
:101E6000801030B16FF0400021680861204600F01A
:101E70003AF820680069C0F3401058B12068C06883
:101E8000C0F3401030B16FF0200021680861204697
:101E9000FFF7A7FE10BD704770470000034A0168B6
:101EA000914202D10121024A11707047000800409E
:101EB000130000200246002031B1042907D0082970
:101EC00008D00C290CD108E01368586B09E013689E
:101ED000986B06E01368D86B03E01368186C00E099
:101EE00000BF00BF7047704710B504460CB9012011
:101EF00010BDA06900B100E000BF94F8410028B90E
:101F0000002084F84000204600F02AF8242084F8BD
:101F100041002068C06820F400502168C860204655
:101F200000F08EF92068006920F490402168086173
:101F30002068406920F02A00216848612068C06854
:101F400040F400502168C86000206064202084F8BC
:101F5000410084F842000020606300BFC8E7000031
:101F600010B586B0044625492068884243D100BF99
:101F70002348C06940F400302149C8610846C0695F
:101F800000F40030019000BF00BF00BF0846806928
:101F900040F0040088610846806900F00400019068
:101FA00000BF00BF02200390042002900120049093
:101FB0000320059002A91348FEF7D6FF08200290DF
:101FC0000020039002A90F48FEF7CEFF2620FFF75E
:101FD000B6F9022211462620FFF7C1F92068C06831
:101FE00040F020002168C8602068C06840F0100000
:101FF0002168C86000BF06B010BD0000004400406A
:1020000000100240000801402DE9F84F04460E463A
:10201000174699464FF0000A94F8420020284FD105
:1020200006B117B90120BDE8F88F002060642220B6
:1020300084F8420000202063FFF734F98246A78528
:10204000E785A068B0F5805F04D1206910B900254C
:10205000B04602E035464FF0000829E05346002222
:1020600020212046CDF8009000F068F908B1032047
:10207000D9E745B920684068C0F30800A8F8000017
:1020800008F1020811E0A068B0F5805F03D0A068F5
:1020900028B9206918B920684068287004E02068D1
:1020A000406800F07F0028706D1CE08D401EE085C8
:1020B000E08D0028D2D1202084F842000020B2E731
:1020C0000220B0E700BFFEE700BFFEE770477047A1
:1020D00008B508490968C9084FF47A72B1FBF2F1F2
:1020E0004143009100BF00BF00994A1E00920029A1
:1020F000F9D108BD00000020704710B5FFF7D8F8EF
:1021000010BD000010B5002100200022214B5B68AB
:1021100003F00C0121B1042906D0082928D107E0D9
:102120001D4B1E4C236027E01B4B1C4C236023E0FF
:10213000184B5B6803F47010164B5B6803F4803235
:10214000022303EB904022B9154B4343134C236009
:102150000DE0104B5B6803F4003323B1104B434395
:102160000E4C236003E00C4B43430C4C236003E014
:10217000094B0A4C236000BF00BF064B5B68C3F3EA
:102180000313084CE15C054B1B68CB40034C2360F8
:1021900010BD00000010024000127A000000002074
:1021A00000093D00D04200087047000010B5024809
:1021B000FFF7A6FD10BD00002800002010B5024862
:1021C000FFF79EFD10BD0000A000002010B50268C2
:1021D000184B984208D0B0F1804F05D0164B98426A
:1021E00002D0164B984203D122F070024B681A437A
:1021F000104B984208D0B0F1804F05D00E4B98425A
:1022000002D00E4B984203D122F44072CB681A439D
:1022100022F080034C6943EA040202608B68C362C7
:102220000B688362034B984201D10B69036301235E
:10223000436110BD002C0140000400400008004034
:1022400070B504462168096921F44051E2681143E0
:10225000226811612269A1681143626941EA02059D
:102260002168C96841F20C62914329432268D16018
:102270002168496921F44071A269114322685161C2
:102280002D4A2168914202D1FFF716FA01E0FFF7CB
:1022900003FA00EBC00101EB001162689200B1FB90
:1022A000F2F100EBC00202EB001263689B00B2FB8C
:1022B000F3F26423B2FBF3F202EBC20303EB02126C
:1022C000A1EB8201322202EB01116422B1FBF2F197
:1022D00001F0F00100EBC00202EB001263689B000A
:1022E000B2FBF3F26423B2FBF3F201EB021200EB58
:1022F000C00101EB001163689B00B1FBF3F100EB3F
:10230000C00303EB00136668B600B3FBF6F3642664
:10231000B3FBF6F303EBC30606EB0313A1EB830158
:10232000322303EB01116423B1FBF3F101F00F0140
:1023300011442268916070BD003801402DE9F041E0
:1023400004460D4617469846069E34E0701C88B336
:102350002EB1FEF7A7FFA0EB0800B0422BD900BFBB
:1023600000BF21680C3151E8001F21F4D0702168B2
:102370000C3141E80002002AF3D100BF00BF00BFCA
:102380002168143151E8001F21F001002168143147
:1023900041E80002002AF3D100BF202084F8410068
:1023A00084F8420000BF002084F8400000BF0320F2
:1023B000BDE8F081FFE7206800682840A84201D10D
:1023C000012000E00020B842C0D00020F0E700006B
:1023D00008B51A4800680068C0F3401098B10020A2
:1023E00000904FF47A73012269461448FFF70CFEFF
:1023F0009DF80010124802780078401C104B1870AD
:102400001048815400BF0D4800680068C0F30010F8
:1024100090B10C490CA000F01FF801F031FF00BF93
:10242000002000900548006800680090034800689C
:102430004068009000BF00BF08BD00008001002080
:102440001600002000010020726563763A20257393
:102450000D0A000000BFFEE70FB4054B10B503A93D
:10246000044A029800F00AF910BC5DF814FB000061
:10247000E93A0008240000200FB4084B10B504A965
:1024800002AA039800F0FAF8044602A9002000F01E
:1024900078FC204610BC5DF814FB0000832D00087A
:1024A00002480068C0F30220704700000CED00E015
:1024B00010B5002804DB0A07130E054A135406E082
:1024C0000A07140E034A00F00F031B1FD45410BD5B
:1024D00000E400E018ED00E002E008C8121F08C1A7
:1024E000002AFAD170477047002001E001C1121F95
:1024F000002AFBD1704700002DE9FF5F82B0002168
:10250000DDE90430020DDDF840B0034318D044F695
:102510001050A2F2FF3242431514119801281FD027
:10252000A5EB0B00401C5FEA000A4FF000064E4F7F
:10253000DFF83891B046504615D5CAF1000413E0D3
:10254000119801244AA3012801D16FEA0B010298D6
:10255000119AC0E90031C0E9024206B0BDE8F09F1F
:10256000CBF10000DFE704460021404A491842EB66
:102570000450CDE9001012E0E00707D032463B4698
:1025800040464946FDF7FFFE8046894632463B46B7
:1025900010461946FDF7F7FE06460F466410002C5C
:1025A000EAD1DDE90401DDE90023BAF1000F06DA22
:1025B000FDF7E9FE42464B46FDF7E5FE05E0FEF776
:1025C00097F842464B46FEF793F804460E46002223
:1025D000284BFEF715F903D84FF0FF30014607E00E
:1025E0000022254B20463146FDF726FEFEF7EFF888
:1025F000102409E0002C0ADB0A220023FDF782FFE9
:10260000039B30321A55641E50EA0102F2D1641C59
:10261000039AC4F111031444119A012A03D0012230
:1026200008430DD10AE0084304D000204FF0110BFD
:10263000119072E7A3EB0B056D1E0DE05B4504DD09
:102640004FF0000205F1010504E003DA4FF000024B
:10265000A5F10105002AECD002981199C0E90231D8
:10266000C0E9004579E70000000014400000F03F99
:10267000300000000000F0430000E03F2DE9FF4F74
:1026800095B09A46884606460025EEE1252877D182
:1026900000242746F94A0121039400E0044316F878
:1026A000013F203B01FA03F01042F7D130782A288D
:1026B00011D06FF02F033078A0F13002092A16D81C
:1026C000039A44F0020402EB820203EB420210443C
:1026D000761C0390EFE758F8042B0392002A03DAE4
:1026E000504244F40054039044F00204761C3078C5
:1026F0002E2816D116F8010F44F004042A280DD014
:102700006FF02F023078A0F13003092B09D807EBC6
:10271000870302EB4303C718761CF3E758F8047BE2
:10272000761C30786C280FD006DC4C2817D068282F
:102730000DD06A2814D104E0742810D07A280FD163
:102740000DE044F400140AE044F4801401E044F481
:1027500040147278824202D104F58014761C761CF3
:10276000307866280BD013DC582877D009DC002895
:1027700075D04528F6D04628F4D047281AD193E1E1
:1027800018E0632835D0642879D0652812D18BE110
:10279000702873D008DC6728F1D069286FD06E28C4
:1027A0000DD06F2806D1ACE073282CD0752874D0DA
:1027B000782853D05246179990476D1C54E1C4F3C2
:1027C0000250022809D003280DD0D8F800100428A0
:1027D0000DD00D6008F1040846E1D8F80010EA17A2
:1027E000C1E90052F6E7D8F800100D80F2E70D704D
:1027F000F0E718F8041B8DF8001000208DF8010098
:10280000EB46012003E058F804BB4FF0FF306107AE
:102810004FF0000102D40DE009F101018946B942EF
:102820000FDA8145F8DB1BF809100029F4D108E024
:1028300009F1010189468142FADB1BF809100029E0
:10284000F6D103985346A0EB090721463846179A5C
:1028500000F080FA284400EB090507E044E008E1B5
:102860000DE01BF8010B524617999047B9F1010989
:10287000F7D2534621463846179AF2E039E00A214A
:10288000C4F302524FF0000B0091022A06D058F810
:10289000040BC117032A09D00AE023E008F107005E
:1028A00020F00702F2E80201904605E000B2C117ED
:1028B000042A01D140B2C117002906DA0A460021D4
:1028C000404261EB02012D2202E0220504D52B22B9
:1028D0008DF80420012203E0E20701D02022F7E76F
:1028E000914657E00A2100E010214FF0000B0091C3
:1028F0000BE010214FF0000B44F004040827009176
:1029000003E008204FF0000B0090C4F30252022AAB
:1029100005D058F8040B0021032A08D008E008F17C
:10292000070020F00702F2E80201904603E080B2BF
:10293000042A00D1C0B24FF0000922072AD532780C
:10294000702A07D0DDF800C08CF0100C5CEA0B0C8C
:1029500005D00EE040228DF80420012208E050EA64
:10296000010306D030238DF804308DF805200222B3
:102970009146009B83F0080353EA0B030AD150EA07
:10298000010201D1620705D530228DF804204FF0F5
:1029900001097F1E3278582A04D039A20C920CAA61
:1029A00002920BE03BA2F9E75B46009AFDF7AAFD15
:1029B0000C9B9B5C029A521E0292137050EA010219
:1029C000F2D1029804A9081A00F1200B600702D581
:1029D00024F4803400E001275F4502DDA7EB0B0003
:1029E00000E0002000EB0B01009003984944401ADE
:1029F0000390E00306D453462146179A039800F04B
:102A0000A9F90544002706E001A85246C05D1799C0
:102A100090476D1C7F1C4F45F6DBE0030CD55346F9
:102A20002146179A039800F095F9054404E03020F8
:102A30005246179990476D1C0099481E0090002936
:102A4000F5DC08E00298029952460078491C029190
:102A5000179990476D1CBBF10001ABF1010BF1DC44
:102A60005BE100F065F90544761C307800287FF4BE
:102A70000DAE19B02846BDE8F08F0000092801000E
:102A800030313233343536373839616263646566E4
:102A900000000000303132333435363738394142A6
:102AA0004344454600000000600700D4062708F1B3
:102AB000070020F00700F0E80223804603F0004CF6
:102AC0005FEA0C0001D097A009E0200501D596A08F
:102AD00005E0E00701D095A001E0AFF24C001390B3
:102AE000307823F0004365280CD006DC452809D057
:102AF00046281DD047287FD13BE0662818D067289C
:102B00007AD136E00021112F01DB112000E0781C82
:102B1000CDE9000104A90CA8FFF7EEFCDDE90D01E9
:102B20000C9A4FF0000B07F10109109200914EE052
:102B30004FF000400097CDE9011004A90CA8FFF761
:102B4000DBFCDDE90D020C9B0F994FF0000B914669
:102B50001093009211B9791C00EB0109B7EB090041
:102B600003D4C0F1FF3B07F10109A9EB0700019075
:102B700042E0012F00DA01270021112F01DD112091
:102B800000E03846CDE9000104A90CA8FFF7B4FC29
:102B9000DDE90D010C9A00914FF0000BB94610923F
:102BA00021070FD4009A4A4503DA914601E0A9F1C2
:102BB0000109B9F1010F05DD109AA9F10101515C7C
:102BC0003029F4D0B84202DA10F1040F03DA0121FF
:102BD000CDE9011010E0002803DC8344A9EB0001DB
:102BE00002E0411C494500DD8946A0EB0B00401C7A
:102BF00001904FF000400290200705D4019848450D
:102C000002DB4FF0FF30019000208DF84B0002985E
:102C10000DF14B07B0F1004F25D002200C902B2076
:102C20000D90029800280CDA404202902D200D9061
:102C300007E00A210298FDF74FFC3031029007F8B7
:102C4000011D0C99481E0C900029F2DC0298002806
:102C5000EFD1791E0D980870307800F0200040F018
:102C6000450007F8020D11A8C01BC01D0290139863
:102C7000007800B1012000EB0901019801EBE0713F
:102C8000029801440398401A401E0390E00306D4C2
:102C900053462146179A039800F05CF805441398B0
:102CA000007818B15246179990476D1CE00323D560
:102CB00053462146179A039800F04CF805441BE050
:102CC000BBF1000F07DB0098584504DD10981799F9
:102CD00010F80B0001E017993020524690470198F8
:102CE0000BF1010B401E05F10105019004D12E20CE
:102CF0005246179990476D1CB9F10001A9F10109DD
:102D0000DEDC05E017F8010B5246179990476D1C61
:102D10000299481E02900029F4DC53462146179A76
:102D200003989EE62D0000002B000000200000000C
:102D30002DE9F041044600251E461746880404D4B8
:102D400005E039462020B0476D1C641EF9D52846A1
:102D5000BDE8F0812DE9F041044600251E4690466D
:102D6000C80301D5302700E02027880404D505E0FA
:102D700041463846B0476D1C641EF9D52846BDE86B
:102D8000F0810A68531C0B601070704710B5012069
:102D900000F094F8102000F091F810BD70B50446D2
:102DA0000CB9022070BDC82000F06EFC00F00EF8D7
:102DB00005462846FDF762FB06460349FDF7FEF986
:102DC00020600020EEE700009A99993F70B500243A
:102DD00000F0A2FF472000F0CAFF00F093FE00F0D1
:102DE000C9FE0546002000F0AFFE00F0C3FE064617
:102DF000012000F0A9FE00F0A6FF46EA05242046C7
:102E000070BD0000F0B589B00020089008A8FFF759
:102E1000C5FF054695B90898FDF74BFB06463246B7
:102E20000B4615A16846FFF727FB6846FDF7BFF97B
:102E3000C4B2694614A0FFF70FFB0BE014A168466B
:102E4000FFF71AFB6846FDF7B2F9C4B2294614A091
:102E5000FFF702FB18480078844203DA0C210220B5
:102E600000F0E6FF0C236A460221002001F07AF907
:102E70001148047009B0F0BD4C696768743A2025A8
:102E80002E3166206C78000025730D0A00000000CA
:102E90004C696768743A202D2D2E2D206C78000027
:102EA0004248313735302072656164206572726F37
:102EB000723A2025640D0A001000002010B5044667
:102EC00000F02AFF462000F052FF00F01BFE2046D3
:102ED00000F04DFF00F016FE00F035FF10BD0000C1
:102EE0002DE9FF4F87B0044699460998C010218804
:102EF000A0EB4100B4F902104843C01205902188AC
:102F00000998C1EB201040430013B4F90410484362
:102F100080130490DDE9041008440690069901EB43
:102F2000810180310812FDF7A0FAC9F800007A4942
:102F3000D9F80000FDF742F9C9F800000698C1175A
:102F40004FF4FA33C51A61F10006A5FB051006FB24
:102F5000050005FB0602B4F91000C317A1FB00CA67
:102F600002FB00A001FB0300CDE902C0B4F90E0092
:102F7000C117A0FB052301FB053100FB061110461C
:102F8000D30B43EA41424304DDE9020118184A41E8
:102F9000CDE90202B4F90C00C200DDE90210091CFF
:102FA0004241CDE90212A5FB051006FB050005FB19
:102FB0000602B4F90A00C317A1FB00CA02FB00A075
:102FC00001FB03004FEA1C2141EA00610212B4F93F
:102FD0000800C317AC46A0FB0CAE03FB05E300FBE7
:102FE0000630000340EA1A504FEA0A33CD1842EB8C
:102FF00000062B1C46F50040E1880022A3FB01AC33
:1030000000FB01C003FB02014D10CE17002185EA31
:1030100001007140084304D1C9F804000BB0BDE8B9
:10302000F08F0898C0F580104FEAE07807464FEA25
:10303000C87242EA5702FB07DDE902011B1A62EB84
:10304000010040F6354C00211A46A2FB0C3A00FB69
:103050000CA002FB01002A46CDE900303346DDE931
:103060000001FDF761F807468846B4F91600C2175B
:10307000790B41EAC84C4FEA6833A0FB0C1A02FBFB
:103080000CA200FB0322780B40EAC8404FEA683CE0
:10309000A1FB003A02FB00A001FB0C01580E40EA24
:1030A000C1154E16B4F91400C117A0FB072301FB8C
:1030B000073100FB0811D00C40EA4130C914CDE9BA
:1030C00002017B1948EB0600DDE902219A1848410C
:1030D000110A41EA00610312B4F91200C217120189
:1030E00042EA10724FEA001C11EB0C0743EB020896
:1030F00038464146FDF7C7F982464FF08741FDF754
:103100005DF8C9F804000449D9F80400FDF756F841
:10311000C9F8040000BF81E70000C84210B5D02004
:1031200000F01CF80446582C01D0012010BDB62137
:10313000E02000F07DF90A2000F0A6FA064800F031
:103140005BF8A421F52000F073F9FF21F42000F0D2
:103150006FF90020EAE70000E800002070B504469F
:1031600000F0DAFDEC2000F002FE00F0CBFC20467F
:1031700000F0FDFD00F0C6FC00F0CEFDED2000F0FB
:10318000F6FD00F0BFFC00F0F5FC0546012000F064
:10319000DBFC00F0D8FD284670BD2DE9F041074664
:1031A0000E46154600F0B8FDEC2000F0E0FD00F002
:1031B000A9FC384600F0DBFD00F0A4FC00F0ACFDFB
:1031C000ED2000F0D4FD00F09DFC00240EE000F0A6
:1031D000D1FC3055681EA04203DD002000F0B4FC95
:1031E00002E0012000F0B0FC601CC4B2AC42EEDB97
:1031F00000F0A9FDBDE8F08110B586B004461822A4
:1032000069468820FFF7C9FF9DF800009DF801106E
:1032100040EA012020809DF802009DF8031040EA5A
:10322000012000B260809DF804009DF8051040EA7E
:10323000012000B2A0809DF806009DF8071040EA2A
:103240000120E0809DF808009DF8091040EA012067
:1032500000B220819DF80A009DF80B1040EA012081
:1032600000B260819DF80C009DF80D1040EA01202D
:1032700000B2A0819DF80E009DF80F1040EA0120D9
:1032800000B2E0819DF810009DF8111040EA012085
:1032900000B220829DF812009DF8131040EA012030
:1032A00000B260829DF814009DF8151040EA0120DC
:1032B00000B2A0829DF816009DF8171040EA012088
:1032C00000B2E08206B010BD1CB50446694601A8F4
:1032D00000F00AF823460348DDE90021FFF700FE6D
:1032E00000201CBDE80000207CB504460D460622E7
:1032F0006946F720FFF751FF9DF8000000049DF894
:10330000011040EA01209DF80210084320609DF85A
:10331000030000049DF8041040EA01209DF8051008
:103320000843286020680011206028680011286088
:103330007CBD0000F0B593B011A8FFF7C5FF0546AE
:10334000002D20D11298FDF7B4F8064632460B4600
:103350001CA101A8FFF790F801A8FCF728FFC4B250
:103360001198FDF7A6F8064632460B4619A0FFF75E
:1033700073F81298FDF79DF8064632460B461BA0DF
:10338000FFF76AF80BE01EA101A8FFF775F801A886
:10339000FCF70DFFC4B229461EA0FFF75DF82348D5
:1033A0000078844203DA0C21042000F041FD0C2354
:1033B00001AA0421002000F0D5FE1C48047013B0BF
:1033C000F0BD000070726573733A252E3266685046
:1033D0006100000054656D70657261747572653AC4
:1033E00020252E326620430D0A00000050726573BE
:1033F000733A20252E3266206850610D0A000000C5
:10340000E6B094E58E8B3A202D2D2E2D206850614C
:1034100000000000424D5032383020726561642057
:103420006572726F723A2025640D0A001500002043
:1034300070B505460C4600F06FFCEC2000F097FCE0
:1034400000F060FB284600F092FC00F05BFB204699
:1034500000F08DFC00F056FB00F075FC70BD000024
:1034600000B585B000BF1D48806940F004001B49CD
:1034700088610846806900F00400009000BF00BF2A
:1034800000BF0846806940F4007088610846806982
:1034900000F40070009000BF00BF202001900320C6
:1034A00002900020039001A90D48FDF75DFD0D4835
:1034B0000D4908600020486000210B4881600173BD
:1034C00001754FF46021C16101210161FDF7F0FA3E
:1034D00010B106A0FEF7C0FF05B000BD001002400D
:1034E00000080140002401407000002041444320B6
:1034F000696E6974206661696C65640D0A0000007C
:1035000070B588B0194805780A2D01DA18A40CE0C6
:10351000282D01DA18A408E0462D01DA18A404E0E9
:103520005A2D01DA19A400E01AA421461CA0FEF7C6
:1035300093FF22461FA16846FEF79EFF6846FCF7F0
:1035400036FEC6B21D480078864203DA0C210620FA
:1035500000F06EFC0C236A460621002000F002FEFB
:10356000164806700148007808B070BD12000020AF
:103570004E6F207261696E004C69676874000000CC
:103580004D6F646572617465000000004865617686
:10359000790000005665727948656176790000000F
:1035A0005261696E206C6576656C3A2025730D0A50
:1035B000000000007261696E3A257300110000205E
:1035C0003EB50024052000900120019005200290C6
:1035D00069461248FDF7B8F920B111A0FEF73CFF8B
:1035E00000203EBD0D48FDF707FC20B113A0FEF7FB
:1035F00033FF0020F5E70A210848FDF73DFB20B91D
:103600000648FDF751FA84B202E011A0FEF724FF4C
:103610000248FDF789FC2046E3E700007000002027
:10362000414443206368616E6E656C20636F6E6613
:103630006967206661696C65640D0A004144432036
:103640007374617274206661696C65640D0A0000B0
:1036500041444320706F6C6C2074696D656F7574A4
:103660000D0A000070B5FFF7ABFF05466420684304
:1036700040F6FF71B0FBF1F0C4B2C4F1640001493F
:10368000087070BD1200002010B5044603E04FF42E
:103690007A7000F005F8201EA4F10104F7D110BDE6
:1036A000014601EBC102D2004FF0E0235A61002233
:1036B0009A611A46126942F004021A611A461269A6
:1036C00042F001021A6100BF4FF0E022106900F0E1
:1036D00001021AB100F48032002AF5D04FF0E02246
:1036E000126922F001024FF0E0231A61704710B511
:1036F00000F0ACF900F098F8002010BD2DE9FC476F
:1037000005460E46684600F049F9074617B13846A7
:10371000BDE8FC879DF800009DF8011008449DF865
:10372000021008449DF80310084400F0FF089DF8BB
:103730000400404502D06FF00200E9E79DF8010067
:103740009DF8001040EA01299DF803009DF8021041
:1037500040EA01244846FCF791FE82460E49FCF7F8
:103760002DFD306004F4004060B1C4F30E04204627
:10377000FCF784FE82460849FCF720FD80F00040FB
:10378000286007E02046FCF779FE82460249FCF7F4
:1037900015FD28600020BBE7000020410146081D00
:1037A00005280ED2DFE800F00B090705030006A08C
:1037B000704706A0FCE70BA0FAE70FA0F8E713A0FC
:1037C000F6E715A0F4E700004F4B00004E6F2072A3
:1037D0006573706F6E7365202F2074696D656F75EA
:1037E0007400000044617461206269742074696D22
:1037F000656F757400000000436865636B73756DD9
:10380000206D69736D6174636800000052656164C6
:10381000206661696C656400556E6B6E6F776E2013
:103820006572726F7200000008B548211648FCF7F7
:10383000B3FC00BF1548C06940F004001349C861DB
:103840000846C06900F00400009000BF00BF1048A7
:103850000D49086041F61F40486000210A48816018
:1038600044F61F61C160002101618161FEF7BAF970
:103870000548FEF7EBF9002211461E20FDF76FFD0B
:103880001E20FDF75CFD08BDA000002000100240D6
:10389000000800402DE9F0438BB02848007800284C
:1038A00049D000200A90099009A90AA8FFF726FF2D
:1038B0008146B9F1000F19D10998FCF7FAFD0546C8
:1038C0000E460A98FCF7F5FD07463A460B461CA142
:1038D00003A8CDE90056FEF7CFFD03A8FCF767FC6F
:1038E000C4B203A91CA0FEF7B7FD10E01EA103A8F7
:1038F000FEF7C2FD03A8FCF75AFCC4B24846FFF726
:103900004DFF05464A4629461CA0FEF7A5FD224864
:103910000078844203DA0C21002000F089FA0C239D
:1039200003AA0021084600F01DFC1B48047000207B
:103930000249087000BF0BB0BDE8F08313000020FF
:10394000543A2530342E31664320483A2530342EFF
:1039500031662525000000004448543232204F4B88
:103960003A2025730D0A0000543A202D2D2E2D43A8
:103970002020483A202D2D2D2500000044485432A7
:1039800032206572726F723A2025732028636F644B
:10399000653D2564290D0A001400002070B5054618
:1039A00000F07EF810B14FF0FF3070BD002402E04F
:1039B00000202855641C052CFADB00243EE0C821B9
:1039C000002000F06BFC002802DA6FF00100ECE749
:1039D000C821012000F062FC002802DA6FF001002B
:1039E000E3E7002607E00120FFF75AFE701C0646B9
:1039F000C82800D905E040211348FDF745FC0128FF
:103A0000F1D000BFE11704EB5171C910695C4906A0
:103A1000090E2046E21704EB5272D210A9540C2E64
:103A20000BD9E11704EB5171C910695C41F0010138
:103A3000E21704EB5272D210A954641C282CBEDB8E
:103A400000F004F80020B0E7000801401FB5002096
:103A5000009001900290039040200090002001907F
:103A60000120029069460248FDF77EFA1FBD000062
:103A7000000801401FB500200090019002900390C3
:103A8000402000901120019001200290032003901B
:103A900069460248FDF768FA1FBD000000080140B2
:103AA00010B5FFF7E7FF002240210E48FDF7F4FBB9
:103AB0000220FFF7E9FDFFF7C9FFC821002000F051
:103AC000EDFB002802DA4FF0FF3010BDC8210120C5
:103AD00000F0E4FB002802DA4FF0FF30F5E70020A9
:103AE000F3E700000008014000BF054A126802F039
:103AF0004002002AF9D0C2B2014B1B1D1A60704768
:103B00000044004010B500F099F80520FFF7C8FD0B
:103B1000012000F053F80520FFF7C2FD4FF40061CB
:103B20000848FDF7B1FB0446002000F047F80520E7
:103B3000FFF7B6FD00F0DAF80220FFF7B1FD2046EE
:103B400010BD0000000C014010B50446204600F0F6
:103B500069F80220FFF7A4FD012000F02FF80520EE
:103B6000FFF79EFD002000F029F80220FFF798FDE6
:103B700010BD000070B5002500F060F80220FFF7CE
:103B80008FFD00240FE0012000F018F84FF40061D1
:103B90000948FDF779FB10B1802020410543002042
:103BA00000F00CF8641C082CEDDB00F09FF80220FC
:103BB000FFF776FD284670BD000C014010B50446A5
:103BC00022464FF480610248FDF766FB10BD0000FD
:103BD000000C014000B585B000BF1048806940F07E
:103BE00008000E4988610846806900F008000090CE
:103BF00000BF00BF11200290081501900120039022
:103C00000320049001A90648FDF7AEF901229102B4
:103C10000348FDF741FB05B000BD00000010024065
:103C2000000C014010B5044622464FF400610248E2
:103C3000FDF732FB10BD0000000C01401FB5002055
:103C4000009001900290039001904FF4006000906A
:103C5000012002900320039069460248FDF784F991
:103C60001FBD0000000C014010B586B000BF1D480C
:103C7000806940F008001B4988610846806900F0AF
:103C80000800019000BF00BF002002900390049044
:103C9000059011200390C814029001200490032085
:103CA000059002A91048FDF75FF90122D1020E48E4
:103CB000FDF7F2FA002411E000224FF400610A48F7
:103CC000FDF7EAFA0120FFF7EBFC0122D1020648DA
:103CD000FDF7E2FA0120FFF7E3FC641C0A2CEBDBA2
:103CE00006B010BD00100240000C01401FB50020BE
:103CF0000090019002900390112001904FF4006019
:103D00000090012002900320039069460148FDF7CE
:103D10002BF91FBD000C014010B50120FFF782FFF9
:103D20000120FFF74BFF0520FFF7BAFC0020FFF74B
:103D300079FF0520FFF7B4FC0020FFF73FFF0220CA
:103D4000FFF7AEFC10BD10B50020FFF76BFF05209C
:103D5000FFF7A6FC0120FFF731FF0520FFF7A0FCCD
:103D60000120FFF75FFF0A20FFF79AFC10BD70B536
:103D70000546002419E080212141294009B1012193
:103D800000E000210846FFF74DFF0220FFF788FC06
:103D90000120FFF713FF0520FFF782FC0020FFF74B
:103DA0000DFF0220FFF77CFC641C082CE3DB70BDD8
:103DB000FDF78AFA4FF4E01000F019FAFEF7A2F9C5
:103DC0000720FDF70BFB00F013F9002000F05BF873
:103DD0004FF4E13000F03EFAFFF789FC00F019F8EB
:103DE000FFF79CF9FFF73CFBFEF7D0FF6420FFF7DD
:103DF0004BFC0DE0FFF74EFDFFF704F8FFF79AFAD2
:103E0000FFF730FCFFF77CFB4FF4FA70FFF73CFC48
:103E1000F0E710B5FFF7DEFEFFF726FF0120FFF702
:103E200001FF0120FFF7CAFE0A20FFF739FC10BD91
:103E30002DE9F04106460C462046E11704EB51718E
:103E4000C1F3C708E11704EB5171C910A4EBC1011C
:103E500019B108F1010000F0FF0800250FE070190A
:103E6000C1B2002000F010F9002704E0002000F0AB
:103E7000A8F9781CC7B2802FF8DB681CC5B245458D
:103E8000EDDBBDE8F08170B5064600240EE021466A
:103E9000002000F0F9F8002504E0304600F091F928
:103EA000681CC5B2802DF8DB601CC4B2082CEEDBA8
:103EB00070BD000000B585B000BF1748806940F0B4
:103EC0000800154988610846806900F008000090E4
:103ED00000BF00BF00BF0846806940F0080088614D
:103EE0000846806900F00800009000BF00BF8815F8
:103EF00001900120029003900320049001A907483B
:103F0000FDF732F84FF40070019001A90348FDF766
:103F10002BF805B000BD000000100240000C01406D
:103F200010B5012211020548FDF7B6F900224FF441
:103F300080710248FDF7B0F910BD0000000C01408F
:103F400010B5012211020A48FDF7A6F9012251021B
:103F50000748FDF7A1F900224FF400710448FDF76E
:103F60009BF900224FF480710148FDF795F910BDCF
:103F7000000C014010B5012211020748FDF78CF931
:103F800000224FF400710448FDF786F90122510226
:103F90000148FDF781F910BD000C014070B50446E1
:103FA000254600261EE005F08000802805D101226C
:103FB00081000E48FDF770F905E000224FF4007112
:103FC0000A48FDF769F96806050E01221102074843
:103FD000FDF762F900224FF480710448FDF75CF9A7
:103FE000701CC6B2082EDEDB70BD0000000C014064
:103FF00010B5FFF75FFF6420FFF746FBAE2000F02F
:10400000CAF8D52000F0C7F8802000F0C4F8A82036
:1040100000F0C1F83F2000F0BEF8D32000F0BBF85C
:10402000002000F0B8F8402000F0B5F8A12000F022
:10403000B2F8C82000F0AFF8DA2000F0ACF8122097
:1040400000F0A9F8812000F0A6F8CF2000F0A3F836
:10405000D92000F0A0F8F12000F09DF8DB2000F05E
:104060009AF8302000F097F8A42000F094F8A620E9
:1040700000F091F88D2000F08EF8142000F08BF8FD
:10408000AF2000F088F810BD70B504460D4605F16C
:10409000B001C8B200F07FF804F00F0000F07BF828
:1040A000102141EA141000F076F870BD2DE9F047B8
:1040B0008246884616461C46A6F12000C6B2204617
:1040C000E11704EB5171C1F3C709E11704EB51711A
:1040D000C910A4EBC10119B109F1010000F0FF09F9
:1040E000002535E008EB0500C1B25046FFF7CCFFD4
:1040F000204604EBD07149106943CFB21FE00C2C6D
:1041000008D106EB4601144A02EB8101C85D00F0BC
:1041100058F812E0102C06D1104901EB0611C85DC9
:1041200000F04FF809E0182C07D106EBC6010C4A45
:1041300002EB8101C85D00F044F8781CC7B204EBC3
:10414000D47149106A1C5143B942D8DC681CC5B20D
:104150004D45C7DBBDE8F087F0440008644900081E
:10416000544F00082DE9F04106460F4614461D46FF
:104170000CE022782B4639463046FFF797FF284659
:1041800005EBD07106EB6101CEB2641C20780028EB
:10419000EFD1BDE8F08110B50446FFF7D1FE7820DD
:1041A000FFF7FCFEFFF7BCFE0020FFF7F7FEFFF76E
:1041B000B7FE2046FFF7F2FEFFF7B2FEFFF7DAFE8A
:1041C00010BD10B50446FFF7BBFE7820FFF7E6FEF2
:1041D000FFF7A6FE4020FFF7E1FEFFF7A1FE204615
:1041E000FFF7DCFEFFF79CFEFFF7C4FE10BD30B505
:1041F0008FB005460124282105A8FBF7CDFF142127
:104200006846FBF7C9FF01200590000406900020D6
:10421000079002200C90C1030D910E9505A8FDF7A3
:1042200093FA04460CB100BFFEE70F200090022075
:104230000190002002904FF48060039000200490D1
:1042400002216846FDF75CF904460CB100BFFEE7A9
:104250000FB030BD10B5044607480849086008464D
:10426000446000218160C16001610C214161002135
:104270008161FDF739FE10BD00440040800100203F
:1042800010B580210348FBF787FF00200249087022
:1042900010BD0000000100201600002070B504468B
:1042A0000D46002609E00120FFF7FAF9701C0646CA
:1042B000A84202D34FF0FF3070BD40210348FCF705
:1042C000E3FFA042EFD13046F6E7000000080140CE
:1042D00000000000000000000102030406070809B6
:1042E00000000000010203040000FC242424252611
:1042F000242424FC000000000000FF81412103056C
:104300000911294542808000404042CC000020181D
:104310000F08F808080800000000007F20100101C5
:104320000101FF01010101008080EE888888E88F8B
:10433000088878484E40C00000007F2424247F0075
:104340008140300F30418000000000000001E21C7D
:10435000E000000000000000804020100C0300007E
:1043600000030C30408080001010909090909010CE
:1043700010FF101011161000002060203F101010C8
:1043800000030C102040F8000000000000F0F010C6
:104390001010121C18101010F0F0000000000000A7
:1043A0000000000000FFFF111131D1111111111196
:1043B000BFDF60000000000000000000003F7F3011
:1043C00010080805060E09191030306020000000A2
:1043D000000000000C3810000000C0783E2420E0EF
:1043E00020202020300000000002020202FE020015
:1043F00014131010101010FF1010101010181000CF
:1044000000000000001F0C04020100000000007FFB
:10441000000000000000000000000000F8484040DC
:10442000C040407E444040C04040FC780000000056
:1044300000000808FF89888888FF090444300EEBD3
:10444000E92808281C0C0000000000003F10101094
:10445000103F404020100C0700030C183060200073
:104460000000000000000004080810F0C000000078
:1044700000000000000000000000000000000080BC
:10448000C0381E03010E70E0800000000000000034
:10449000004020100804020100000000000000009D
:1044A00003070E1C38101000000000808080808000
:1044B0008080808080FCFC80848898706040000050
:1044C00000000808080808F80808080800037FE04A
:1044D0000000000000000000000030301010080F45
:1044E0000808040404000003071C1830607E400024
:1044F0000000000000000000000000000000FC00C0
:104500000000000002000000000C020C020000008D
:104510000000000090D0BCD0BC900003000300005D
:104520001824FE448C000302070201001824D8B0AE
:104530004C80000300010201C038E438E0000102B1
:104540000201020208060000000000000000000056
:10455000000000F80402000000010204000204F858
:1045600000000004020100009060F860900000006C
:10457000010000002020FC202000000001000000BD
:10458000000000000000080600000000202020209D
:1045900020000000000000000000000000000002F9
:1045A000000000000080601C020004030000000006
:1045B000F8040404F8000102020201000008FC00F3
:1045C00000000002030200001884442418000302C3
:1045D0000202020008042424D800010202020100A1
:1045E00040B088FC80000000000302003C2424242A
:1045F000C400010202020100F824242CC0000102C0
:10460000020201000C04E41C04000000030000008E
:10461000D8242424D8000102020201003844444472
:10462000F80000030202010000001000000000007A
:104630000200000000002000000000000600000052
:104640000020508804020000000001029090909029
:1046500090000000000000000002048850200002CA
:10466000010000001804C42418000000020000002B
:10467000F804E494F80001020202020000E09CF059
:10468000800002030000030204FC2424D80002037B
:1046900002020100F80404040C00010202020100FD
:1046A00004FC0404F80002030202010004FC247468
:1046B0000C0002030202030004FC24740C00020339
:1046C00002000000F0080444CC4000010202010096
:1046D00004FC2020FC040203000003020404FC0488
:1046E0000400020203020200000404FC04040604A5
:1046F0000403000004FC24D00C04020302000302A3
:1047000004FC04000000020302020203FC3CC03C63
:10471000FC0003000300030004FC30C4FC0402039B
:1047200002000300F8040404F80001020202010080
:1047300004FC24241800020302000000F88484040E
:10474000F80001020207050004FC2464980002033B
:1047500002000302182424448C0003020202010018
:104760000C04FC040C0000020302000004FC000026
:10477000FC04000102020100047C80E01C04000033
:10478000030000001CE03CE01C00000300030000EC
:10479000049C609C0400020300030200041CE01C53
:1047A00004000002030200000C84641C04000203E5
:1047B000020203000000FE020200000007040400E1
:1047C000000E30C00000000000010200000202FEE6
:1047D00000000004040700000004020400000000C0
:1047E0000000000000000000000008080808080899
:1047F0000000020000000000000000000040A0A037
:10480000C00000010202030204FC2020C0000003DB
:104810000202010000C0202060000001020202002C
:1048200000C02024FC0000010202030200C0A0A07E
:10483000C0000001020202000020F824240400024B
:10484000030202000040A0A0602000070A0A0A0438
:1048500004FC2020C0000203020003020020E40048
:104860000000000203020000000020E4000008082D
:104870000807000004FC80E020200203020003027D
:104880000404FC000000020203020200E020E02019
:10489000C00003000300030020E02020C00002034A
:1048A0000200030200C02020C0000001020201003B
:1048B00020E02020C000080F0A02010000C02020D4
:1048C000E0000001020A0F0820E04020200002035F
:1048D000020000000060A0A020000002020203000D
:1048E0000020F820000000000102020020E000206B
:1048F000E00000010202030220E0208060200000AE
:10490000030100006080E0806000000300030000FD
:1049100020608060200002030003020020E020806D
:1049200060200808070100000020A06020000002AD
:1049300003020200000020DE020000000007040065
:10494000000000FF00000000000F00000002DE2059
:10495000000000040700000002010204040200003D
:104960000000000000000000000000000000000047
:1049700000000000000000F800000000000000330C
:104980003000000000100C06100C060000000000B3
:104990000000000040C07840C0784000043F04049C
:1049A0003F040400007088FC08300000001820FF5D
:1049B000211E0000F008F000E018000000211C0398
:1049C0001E211E0000F00888700000001E21232414
:1049D0001927211010160E00000000000000000032
:1049E00000000000000000E01804020000000007C2
:1049F0001820400000020418E000000000402018C9
:104A000007000000404080F0804040000202010F9B
:104A100001020200000000F0000000000101011F7F
:104A200001010100000000000000000080B07000E3
:104A30000000000000000000000000000001010173
:104A40000101010100000000000000000030300002
:104A500000000000000000008060180400601806DC
:104A60000100000000E010080810E000000F102016
:104A700020100F00001010F8000000000020203F60
:104A800020200000007008080888700000302824EA
:104A9000222130000030088888483000001820208B
:104AA00020110E000000C02010F8000000070424B0
:104AB000243F240000F808888808080000192120F5
:104AC00020110E0000E0108888180000000F11204F
:104AD00020110E0000380808C83808000000003F08
:104AE000000000000070880808887000001C222167
:104AF00021221C0000E010080810E0000000312214
:104B000022110F00000000C0C000000000000030B3
:104B10003000000000000080000000000000806005
:104B20000000000000008040201008000001020486
:104B3000081020004040404040404000040404046D
:104B40000404040000081020408000000020100829
:104B500004020100007048080808F000000000305E
:104B600036010000C030C828E810E00007182724EC
:104B700023140B000000C038E0000000203C23029A
:104B80000227382008F8888888700000203F2020FD
:104B900020110E00C030080808083800071820202F
:104BA0002010080008F808080810E000203F202026
:104BB00020100F0008F88888E8081000203F202007
:104BC0002320180008F88888E8081000203F2000FB
:104BD00003000000C0300808083800000718202033
:104BE000221E020008F808000008F808203F2101F2
:104BF00001213F20000808F8080800000020203F9D
:104C00002020000000000808F8080800C08080800C
:104C10007F00000008F888C028180800203F200105
:104C20002638200008F8080000000000203F20205F
:104C30002020300008F8F800F8F80800203F003F76
:104C4000003F200008F830C00008F808203F20008E
:104C500007183F00E01008080810E0000F1020209F
:104C600020100F0008F808080808F000203F210174
:104C700001010000E01008080810E0000F182424CB
:104C800038504F0008F8888888887000203F20003E
:104C9000030C3020007088080808380000382021F4
:104CA00021221C00180808F8080818000000203FFE
:104CB0002000000008F808000008F808001F202065
:104CC00020201F000878880000C838080000073836
:104CD0000E010000F80800F80008F800033C070087
:104CE000073C0300081868808068180820302C03EF
:104CF000032C30200838C800C83808000000203FC6
:104D00002000000010080808C838080020382621B4
:104D100020201800000000FE020202000000007FB8
:104D200040404000000C30C00000000000000001C6
:104D30000638C00000020202FE00000000404040B1
:104D40007F000000000004020202040000000000D6
:104D50000000000000000000000000008080808053
:104D6000808080800002020400000000000000003B
:104D700000000000000080808080000000192422D4
:104D800022223F2008F8008080000000003F112010
:104D900020110E000000008080800000000E112015
:104DA00020201100000000808088F800000E1120F3
:104DB00020103F200000808080800000001F222201
:104DC00022221300008080F0888888180020203F6D
:104DD000202000000000808080808000006B949480
:104DE0009493600008F8008080800000203F21003C
:104DF00000203F2000809898000000000020203F05
:104E000020200000000000809898000000C08080F2
:104E1000807F000008F8000080808000203F24028E
:104E20002D302000000808F8000000000020203F7E
:104E3000202000008080808080808000203F200033
:104E40003F20003F8080008080800000203F2100C4
:104E500000203F200000808080800000001F202074
:104E600020201F00808000808000000080FFA120A3
:104E700020110E000000008080808000000E1120B4
:104E800020A0FF80808080008080800020203F2143
:104E900020000100000080808080800000332424F6
:104EA00024241900008080E0808000000000001FA2
:104EB000202000008080000000808000001F202053
:104EC00020103F20808080000080808000010E3014
:104ED0000806010080800080008080800F300C0375
:104EE0000C300F0000808000808080000020312E78
:104EF0000E312000808080000080808080818E7054
:104F00001806010000808080808080000021302C05
:104F10002221300000000000807C0202000000001E
:104F2000003F404000000000FF00000000000000C3
:104F3000FF0000000002027C800000000040403FB3
:104F4000000000000006010102020404000000004D
:104F50000000000000000000000000000000000051
:104F60000000000000000000000000000000000041
:104F700000000000000000000000000000F0F0F061
:104F8000000000000000000000017F0100000000A0
:104F900000000000001C1C1C0000000000008060DD
:104FA000301C8C60301C0C00000000000000000071
:104FB00000000000000000000000000000000000F1
:104FC000000000E00000000000E000000086E69F16
:104FD00086868686E69F860000011F010101010189
:104FE0001F010100000080C06020F820E0C0000028
:104FF000000003070C18FF70E18100000000070F9C
:1050000010107F100F0700008060206080000000FB
:10501000E02000000F3020309F70DC371030C000DF
:105020000000100E03000718101807000000C02031
:1050300020E0C0000000000080E01F38E88703C4C3
:105040003C040000070F1810100B070D101008008B
:1050500000808C4C380000000000000000000000C0
:105060000000000000000000000000000000000040
:105070000000000000000000000080E03008040094
:105080000000000000FEFF01000000000000000022
:105090000000030F1820400000040830E0800000EA
:1050A000000000000000000001FFFE000000000002
:1050B000004020180F030000000000000000000066
:1050C0000000C00000000000004266663C18FF18A7
:1050D0003C66664200000000000003000000000083
:1050E0000000000000008000000000000010101010
:1050F0001010FF101010101000000000000003003E
:10510000000000000000000000000000000000009F
:1051100000000000000000000000000000808C4C37
:105120003800000000000000000000000000000047
:1051300000000000001010101010101010101000CF
:10514000000000000000000000000000000000005F
:10515000000000000000000000000000000000004F
:105160000000000000001C1C1C00000000000000EB
:105170000000000000000000E0380C00000000000B
:1051800080701C03000000000060380E0100000069
:1051900000000000000080C060202060C08000008F
:1051A00000FEFF010000000001FFFE000001070EED
:1051B000181010180E0701000000808080C0E00069
:1051C000000000000000000000FFFF0000000000E1
:1051D00000001010101F1F10101000000080402051
:1051E00020202060C08000000003030080402038A1
:1051F0001F070000001C1A1918181818181F0000A3
:105200000080C020202060C0800000000003030058
:105210001010182FE780000000070F101010101852
:105220000F070000000000000000C0E0F0000000D8
:1052300000C0B088868180FFFF80800000000000F1
:105240000010101F1F1010000000E0606060606020
:105250006060000000003F1008080818F0E000003F
:1052600000070B101010101C0F030000000080C07E
:1052700040202020E0C0000000FCFF2110080808AA
:1052800018F0E0000001070C18101010080F0300C0
:105290000000C0E06060606060E06000000003004B
:1052A0000000E0180700000000000000001F1F00C1
:1052B000000000000080C0602020202060C080002E
:1052C0000087EF2C1818303068CF830000070F08D4
:1052D00010101010180F07000000C0C02020202060
:1052E000C0800000001F3F604040402010FFFE00D3
:1052F00000000C1C101010080F030000000000003C
:10530000000000000000000000000000000E0E0E73
:105310000000000000000000001C1C1C0000000039
:10532000000000000000000000000000000000007D
:10533000000C0C00000000000000000000583800C5
:10534000000000000000000000000080402010006D
:10535000000010284482010000000000000000004E
:10536000000001020408100000000000000000001E
:105370000000000000848484848484848484840005
:1053800000000000000000000000000000001020ED
:1053900040800000000000000000000000000182CA
:1053A0004428100000001008040201000000000062
:1053B00000C020201010101030E0C00000030300D7
:1053C00000F010080C070300000000001C1C1C006B
:1053D00000000000000000C0406020202040C0000D
:1053E00000FCFF01F00E03C1FE03807F0001070EE9
:1053F00008111110110904020000000080E0E00013
:10540000000000000000807C4340477FF8800000DF
:1054100010181F1000000000131F1C1020E0E020D7
:1054200020202060C080000000FFFF101010101826
:105430002FE78000101F1F1010101010180F07000A
:10544000000080C0402020202060E00000FCFF0120
:1054500000000000000001000001070E18101010ED
:105460000804030020E0E02020202040C08000004D
:1054700000FFFF000000000001FFFE00101F1F10D2
:10548000101018080E07010020E0E0202020202046
:105490002060800000FFFF101010107C0000000052
:1054A000101F1F10101010101018060020E0E02030
:1054B000202020206060800000FFFF101010107C72
:1054C00000000100101F1F1000000000000000007D
:1054D000000080C06020202040E0000000FCFF01B0
:1054E00000004040C0C140400001070E18101010DD
:1054F0000F0F000020E0E0200000000020E0E0208E
:1055000000FFFF101010101010FFFF00101F1F10E1
:1055100000000000101F1F100000202020E0E020ED
:10552000202000000000000000FFFF00000000003D
:1055300000001010101F1F101010000000000000CD
:10554000202020E0E020202000000000000000FFDC
:10555000FF0000000060E0808080C07F3F0000000E
:1055600020E0E020000020A06020200000FFFF30AD
:10557000187CE3C000000000101F1F100000011382
:105580001F1C181020E0E0200000000000000000B8
:1055900000FFFF000000000000000000101F1F10AF
:1055A000101010101018060020E0E0E000000000CD
:1055B000E0E0E02000FF013FFEC0E01E01FFFF0031
:1055C000101F1000031F0300101F1F1020E0E0C079
:1055D000000000000020E02000FF0003071C78E02E
:1055E0008000FF00101F100000000000030F1F00CC
:1055F000000080C060202060C080000000FEFF012D
:105600000000000000FFFE000001070E1810101837
:105610000C07010020E0E0202020202060C0800056
:1056200000FFFF2020202020301F0F00101F1F1020
:105630000000000000000000000080C0602020602A
:10564000C080000000FEFF010000000000FFFE001F
:105650000001070E1111133C7C67210020E0E020BF
:105660002020202060C0800000FFFF101030F0D00C
:10567000080F0700101F1F10000000030F1C101060
:105680000080C060202020204040E00000070F0C78
:105690001818303060E08100001F0C081010101046
:1056A000180F07008060202020E0E020202060808C
:1056B0000100000000FFFF000000000100000000EA
:1056C000101F1F100000000020E0E020000000007C
:1056D0000020E02000FFFF00000000000000FF00AD
:1056E00000070F1810101010100807002060E0E0ED
:1056F0002000000020E060200000077FF88000808C
:105700007C03000000000000071F1C0700000000D1
:1057100020E0E02000E0E0200020E0200007FFF88B
:10572000E01FFFFCE01F00000000031F0300011F3B
:1057300003000000002060E0A0000020E0602000E6
:10574000000000038F7CF8C6010000000010181E46
:10575000130001171F1810002060E0E02000000077
:1057600020E06020000001073EF8E018070000007C
:1057700000000010101F1F101000000000806020AB
:10578000202020A0E0E0200000000000C0F03E0F3C
:105790000300000000101C1F171010101018060046
:1057A0000000000000FC04040404040000000000E9
:1057B00000FF00000000000000000000007F4040EB
:1057C00040404000000010E0000000000000000029
:1057D00000000000031C60800000000000000000CA
:1057E000000000030C70800000000404040404FCAA
:1057F0000000000000000000000000FF00000000AA
:10580000000040404040407F0000000000000010C9
:10581000080C040C0810000000000000000000004C
:105820000000000000000000000000000000000078
:105830000000000000000000000000000000000068
:105840000000000000000000808080808080808058
:105850008080808000000004040808000000000030
:105860000000000000000000000000000000000038
:105870000000000000000000000000000000000028
:1058800000000000000098D844642424FCF80000C4
:10589000000F1F18101010081F1F10180020E0F034
:1058A00000000000000000000000FFFF18080404D2
:1058B0000CF8F00000001F0F18101010180F030054
:1058C00000000000000000000000000000E0F818E8
:1058D0000404043C3800000000030F0C10101010EA
:1058E000080600000000000000000020E0F00000BA
:1058F00000E0F81C04040408FFFF000000030F1878
:10590000101010081F0F0800000000000000000029
:10591000000000000000E0F8484444444C78700067
:105920000000030F0C181010100804000000000005
:1059300080C0602020E0C00000040404FFFF0404D5
:1059400004040000000010101F1F101010000000C1
:10595000000000000000000000000000000070F8DF
:105960008C04048CF874040C007076CF8D8D8D89B6
:10597000C87870000020E0F0000000000000000087
:105980000000FFFF08040404FCF8000000101F1FC3
:10599000100000101F1F10000000000000606000D9
:1059A000000000000000040404FCFC0000000000F3
:1059B00000001010101F1F10101000000000000049
:1059C000000000606000000000000000040404FC0F
:1059D000FC0000000000C0C08080C07F3F000000CD
:1059E0000020E0F000000000000000000000FFFFC9
:1059F00080C0F41C0404000000101F1F1100031FCE
:105A00001C1010000000202020E0F000000000002A
:105A10000000000000FFFF00000000000000101068
:105A2000101F1F10101000000000000000000000F8
:105A30000000000004FCFC0804FCFC0804FCFC0062
:105A4000101F1F10001F1F10001F1F10000000005C
:105A500000000000000000000004FCFC0808040432
:105A6000FCF8000000101F1F100000101F1F100086
:105A700000000000000000000000000000E0F0183E
:105A80000C04040C18F0E00000030F0C10101010B0
:105A90000C0F0300000000000000000000000000E8
:105AA0000004FCFC080404040CF8F0000080FFFF74
:105AB000889010101C0F0300000000000000000080
:105AC0000000000000E0F81C04040408F8FC0000DA
:105AD00000030F1810109088FFFF800000000000E6
